:020000040800F2
:100000006833002071020008790200087B020008B2
:100010007D0200087F020008810200080000000045
:100020000000000000000000000000008302000843
:10003000850200080000000087020008890200080D
:100040008B0200088B0200088B0200088B0200085C
:100050008B0200088B0200088B0200088B0200084C
:100060008B0200088B0200088B0200088B0200083C
:100070008B0200088B0200088B0200088B0200082C
:100080008B0200088B0200088B0200088B0200081C
:100090008B0200088B0200088B0200088B0200080C
:1000A0008B0200088B0200088B0200088B020008FC
:1000B0008B0200088B0200088B0200088B020008EC
:1000C0008B0200088B0200088B0200088B020008DC
:1000D0008B0200088B0200088B020008C54600084E
:1000E0008B0200088B0200088B0200088B020008BC
:1000F0008B0200088B0200088B0200088B020008AC
:100100008B020008FD2C00088B0200088B020008FF
:100110008B0200088B0200088B0200088B0200088B
:100120008B0200088B0200088B0200088B0200087B
:100130008B0200088B0200088B0200088B0200086B
:100140008B0200088B0200088B0200088B0200085B
:100150008B0200088B0200088B0200088B0200084B
:100160008B0200088B0200088B0200088B0200083B
:100170008B0200088B0200088B0200088B0200082B
:100180008B0200088B02000800F002F800F059F81A
:100190000AA090E8000C82448344AAF10107DA45E2
:1001A00001D100F04EF8AFF2090EBAE80F0013F0DB
:1001B000010F18BFFB1A43F001031847CC7B000066
:1001C000EC7B0000103A24BF78C878C1FAD85207F7
:1001D00024BF30C830C144BF04680C6070470000C1
:1001E0000023002400250026103A28BF78C1FBD840
:1001F000520728BF30C148BF0B607047642900F028
:100200008781782900F0C081732900F02A850020B9
:1002100070471FB507F0C0FC9DE8030000F0ECFB41
:1002200001F028F804000020002107F067FA401CC4
:1002300060600020002107F077FAE0601FBD10B574
:1002400010BD01F0BCF81146FFF7E3FF06F046F8D9
:1002500001F010FB03B4FFF7F2FF03BC04F02EFC27
:1002600080F308887047000072B6704762B6704726
:100270000948804709480047FEE7FEE7FEE7FEE73A
:10028000FEE7FEE7FEE7FEE7FEE7FEE70448054976
:10029000054A064B704700005D46000889010008CA
:1002A00068030020683300206823002068230020B2
:1002B000704770B5064600F083FB056806F10B0039
:1002C00020F00704B4429CBF002070BD2B466A6832
:1002D000BAB11068A04210D304F1080188423CBFB3
:1002E0005068586007D35168101941601168091BA4
:1002F000016058601460101D70BD13465268002ADA
:10030000E7D12146284600F063FB0028DED170BD0E
:1003100070B50446051F00F053FB0068002C14BFA5
:10032000446870BD002C18BFAC423CBF20466468D6
:10033000F8D301680A18AA4218BF456003D12A6899
:1003400005461144016028684119A1421CBF6C6038
:1003500070BD6168696021680844286070BD70B52F
:100360000D460646041F00F02BFBD0F800C0C5B1B7
:10037000E6B105F10B0020F00703AB423CBF0020C3
:1003800070BD2068984238BFDCF8042013D3C11A2E
:1003900008292FD3E01840F8041B2360FFF7B8FFAB
:1003A00028E03046FFF7B4FF002070BD2846BDE8C6
:1003B0007040FFF77EBF002A18BFA2423CBF9446A0
:1003C0005268F8D30119914216D111680844984235
:1003D00012D3C11A08293CBF2060506808D3516865
:1003E000E0184160216812681144C91A0160236055
:1003F000CCF80400201D70BD181FFFF75AFF050040
:1004000007D021680A1F211D00F035FA201DFFF7D3
:100410007FFF284670BD10B54C1084EA530404D504
:100420004042C1F1000138BF491E1B4204D552426F
:10043000C3F1000338BF5B1E00F014FB14F0804FC3
:1004400004D04042C1F1000138BF491E14F0004FF2
:1004500004D05242C3F1000338BF5B1E10BD10B57B
:10046000044600F0A5FA0068005DC00602D504F15C
:10047000200010BD204610BD0FB4044910B503AADA
:10048000029800F0F3FB10BC5DF814FB00000020A4
:100490000FB41CB5084B06AA7B446946009005982A
:1004A00000F0B5FB04460020694600F0C3FB20467F
:1004B0001CBC5DF814FB00009907000070B50C46E9
:1004C0000546012A05D02878800600D5EA69002370
:1004D00002E0012305E05B1C934202D2E05C0028AD
:1004E000F9D1A869E618C01AA861286A18442862D8
:1004F0002846AFF3008004E0D5E9012114F8010B90
:100500009047B442F8D32846AFF3008070BD000096
:100510002DE9F0410646002410687529314616A5DC
:1005200010D0AFF30080002802DA404213A507E0A4
:1005300031688A0701D512A502E0490704D511A543
:10054000012401E0AFF3008000210A2206F1240714
:1005500009E0B0FBF2FCB0FBF2F302FB1C00303010
:1005600078541846491C0028F3D123462A463046C1
:10057000BDE8F04100F0EDBA000000002D000000E1
:100580002B0000002000000070B504460D462146F7
:100590001068AFF300802188090502D50F4A7A441C
:1005A00002E00E4A7A440E32002104F1240305E0F1
:1005B00000F00F060009965D5E54491C0028F7D133
:1005C00020780023000704D5702D02D009B1022342
:1005D00011322046BDE8704000F0BBBA167700002B
:1005E0002DE9F05F894604464FF0000ADFF824B198
:1005F000FB44C0F820A02046E168884700287DD051
:10060000252806D0D4E901219047206A401C2062A9
:10061000F1E700255F462046E16888472028064626
:1006200007DB312E05D2B81910F8200C08B10543AC
:10063000F1E7A80701D525F00405C4F81CA00027A0
:10064000C4F818A02A2E09D0304604F030FA38B386
:1006500004EB8708303EC8F8186019E059F8041B0D
:10066000204604EB87029161E1688847012F064626
:1006700018D1E069002820DA25F020051DE0D8F81F
:10068000180000EB800006EB40003038C8F8180076
:100690002046E1688847064604F009FA0028EED1B2
:1006A000012F0AD02E2E08D12046E16888477F1CF2
:1006B0000646022F45F02005C4DBA069002803DAB6
:1006C000404245F00105A061E80701D025F0100582
:1006D000A6B1A6F14100192802D8203645F40065DC
:1006E0004A463146204625604D46FFF787FD60B1FA
:1006F000012807D0ED1D25F0070000E007E000F11C
:10070000080978E705F1040975E730467AE7206AB9
:10071000BDE8F09FEC76000010B5431C02E010F835
:10072000011B71B18107FAD14FF0013202C88C1A56
:100730008C4314EAC211F9D0C01A0A0603D0C01EB5
:1007400010BDC01A10BD0A0401D0801E10BD0902E0
:10075000FCD0401E10BD40EA010370B59B072ED1AE
:100760004FF00136042A2AD308C810C99D1B9D43A7
:10077000121F15EAC61517D0D8B2E1B2401A50EAD6
:10078000056110D198B2A1B2401A50EA05410AD1D0
:1007900023F07F4024F07F41401A50EA052102D126
:1007A000180EA0EB146070BDA342DBD018BA21BABA
:1007B000884201D9012070BD4FF0FF3070BD0AB9E9
:1007C000002070BD10F8013B11F8014B63B1A3424A
:1007D0000AD1521E08D010F8013B11F8014B1BB191
:1007E000A34201D1521EEDD1181B70BD032A40F265
:1007F000308010F0030C00F0158011F8013BBCF1C3
:10080000020F624498BF11F801CB00F8013B38BFDA
:1008100011F8013BA2F1040298BF00F801CB38BFE8
:1008200000F8013B11F0030300F02580083AC0F006
:10083000088051F8043B083A51F804CBA0E80810AE
:10084000F5E7121D5CBF51F8043B40F8043BAFF3E1
:100850000080D20724BF11F8013B11F801CB48BF3B
:1008600011F8012B24BF00F8013B00F801CB48BF71
:1008700000F8012B704710B5203AC0F00B80B1E8AA
:100880001850203AA0E81850B1E81850A0E81850C5
:10089000BFF4F5AF5FEA027C24BFB1E81850A0E8CE
:1008A000185044BF18C918C0BDE810405FEA827CE8
:1008B00024BF51F8043B40F8043B08BF7047D207FF
:1008C00028BF31F8023B48BF11F8012B28BF20F8A0
:1008D000023B48BF00F8012B70474FF0000200B503
:1008E000134694469646203922BFA0E80C50A0E853
:1008F0000C50B1F12001BFF4F7AF090728BFA0E801
:100900000C5048BF0CC05DF804EB890028BF40F8CC
:10091000042B08BF704748BF20F8022B11F0804F0E
:1009200018BF00F8012B70474FF0013C50F8042B22
:1009300051F8043B9A4221D1A2EB0C03934313EAF2
:10094000CC1317D150F8042B51F8043B9A4215D11F
:10095000A2EB0C03934313EACC130BD150F8042BF6
:1009600051F8043B9A4209D1A2EB0C03934313EADA
:10097000CC13DBD04FF00000704700BFD01A01BA93
:10098000B1FA81F101F0180122FA01F0CB40C1F176
:100990002001DBB2C0B2C01A2CFA01F3D11A914384
:1009A00011EAC311E6D170477047704770470000E5
:1009B00010B500F05FFC001D10BD00BF416D0000D0
:1009C0000048704710030020704770477047704719
:1009D00038B504460A4600206946AFF30080002877
:1009E00008BF38BD02460099204600F04BFC0120AC
:1009F00038BD012000F0DCBCF8B5AFF3008005463F
:100A000000200C46102000BF0646A819A0420DD9B0
:100A1000324669460020AFF30080070008BF00F0AF
:100A2000C7FC0098A04218BF0546C419FFF7C8FFCD
:100A300005600746F01D20F007004619284600F023
:100A40000AF8B44208BFF8BDA21B31463868BDE8B9
:100A5000F84000F017BC00210160C0E901107047A8
:100A60001020704753EA020C00F069802DE9F04B2A
:100A70004FF00006002B1FBFB3FA83F503FA05F40D
:100A800024FA05F65E4012BF1643B2FA82F502FA66
:100A900005F4C5F120051EBF22FA05FC44EA0C044A
:100AA000203556EA044C4FEA144418BF641C4FF03A
:100AB00000084FF00009904271EB030C39D3002974
:100AC00019BFB1FA81F701FA07F6B0FA80F700FA18
:100AD00007F6C7F120071EBF20FA07FC46EA0C06FE
:100AE0002037B6FBF4FCA7EB0507103F07F01F0B00
:100AF000CBF120060CFA0BFB2CFA06F644BFB346EA
:100B00000026202FA4BF5E464FF0000B5BEA060CC8
:100B100008BF4FF0010B19EB0B09ABFB027C48EB54
:100B20000608C01B06FB02CC0BFB03CC71EB0C01CF
:100B3000C1E70B46024641464846BDE8F08B13B577
:100B40004FF000004FF00001AFF30080BDE81C4003
:100B500070472DE9F0470D4699469246044600F14C
:100B600024080168880604D5E06921F0100121609D
:100B700000E00120A84201DD471B00E00027A16939
:100B80007A1902EB0900081AA0612078C00602D485
:100B90002046AFF30080002608E0D4E901211AF8CE
:100BA00006009047206A401C761C20624E45F4DB0C
:100BB0002078C0060AD52046AFF3008006E0D4E9CD
:100BC000012130209047206A401C2062381EA7F186
:100BD0000107F4DC07E0D4E9012118F8050090478B
:100BE000206A401C2062281EA5F10105F3DC204686
:100BF000AFF300802078000602D50220BDE8F08720
:100C00000120FBE701694A1C02610878704700B5C2
:100C10008FB0CDE901310021059105497944CDE935
:100C2000031011466846FFF7DBFC0FB000BD000063
:100C3000E5FFFFFF0A6802F8010B0A60704710B574
:100C4000436913B1AFF3008001E0FFF737FC0120E7
:100C500010BD127800F124010A7000224A700122AE
:100C6000EDE711684FF0FF32E9E70000074B70B580
:100C70000D467B44FFF7CBFF0446284604F0E2FF15
:100C800010B14FF0FF3070BD204670BD835300009F
:100C90002DE9FF4F06468BB00878FF2806D0491C87
:100CA0002D2805D000244FF0000908E000200CE0BA
:100CB0000124F8E709EB8903491C00EB4309087894
:100CC000FF28F7D114B1C9F1000081461078002542
:100CD0002C46AA4629462D2801D02B2804D1521C87
:100CE0002D2813D0002082468B461078FF280FD085
:100CF0004FF0000C0A21521CA5FB017804FB018176
:100D000005FB0C11C5194BEB0104EEE70120EAE7E6
:100D1000002108464FF00000BAF1000F02D000EBAE
:100D200080004008C0F38157012F01DD4FF0FF37ED
:100D30000E9955EA040009EB01080BD04FF00209A7
:100D400018F5FA7F16DA4FEACA70002F706008DDD6
:100D5000012007E04FEACA70C6E900B00FB0BDE855
:100D6000F08F0020306000F089FAC0F80090182160
:100D7000084616E0B8F5FA7F18DD002F02DAF748CA
:100D8000784401E0F6487844D0E90010C6E9001044
:100D900040EACA70706000F071FAC0F80090142147
:100DA00008460FB0BDE8F04F06F000BF002108462E
:100DB0004FF00000B8F10001099002DAC7F100021B
:100DC00000E03A4601DAC8F1000106A800F07EFA18
:100DD00006AB93E8070003AB83E8070044F23E004C
:100DE0005BEA04010090584604D144F21E012C46EF
:100DF0005D460091210C0904014306D100992404A9
:100E000044EA15442D041039009104F07F41014358
:100E100006D10099240244EA15642D020839009194
:100E200004F07041014306D10099240144EA15748D
:100E30002D01091F009104F04041014306D10099A2
:100E4000A40044EA9574AD00891E009104F00041AD
:100E5000084304D100986D196441401E00904FF082
:100E600001033A466846B8F1000FCDE9014503A9F0
:100E700002DD00F0FAFF01E000F0CDFFBAF1000F53
:100E800004460D4601D084F00044002108464FF08E
:100E90000000099940F2FF77484010F00C0F07D18D
:100EA00024F00040284303D0C4F30A50B84212D1C2
:100EB00000F0E4F9C0F80090C4F30A50B8420AD137
:100EC000A8487844D0E90010C6E9001004F00041B9
:100ED0000843706042E7C6E900543FE72DE9FF4F41
:100EE0001F464FF0000A4FF0FF38454691B0D7E952
:100EF0000146CDF83CA000F0BDF9C0680168405C37
:100F00001090B96912986D1C8847396A81468847E4
:100F10000028F6D1B9F1FF3F0AD0002E24F4D064A6
:100F200011DDB9F12B0F08D0B9F12D0F0BD102E073
:100F3000404615B013E744F48064B96912986D1CFB
:100F40008847761E8146600504A901D52D2000E062
:100F50002B20002E01F1010B0DF130088DF810004F
:100F60003FDDB9F1690F08D0B9F1490F05D0B9F1EA
:100F70006E0F02D0B9F14E0F1CD13B4601A800956F
:100F800080E85002DDE912126FF0020006F075FEF3
:100F9000C11CCED10EE0B96912986D1C88478146FC
:100FA0001398761E44F4007405600F98401C002EC0
:100FB0000F9016DDB9F1300FEDD0B9F1780F02D0F6
:100FC000B9F1580F0DD10F9801280AD13B46CDE950
:100FD0000054DDE91212001F029606F04CFEC11CFF
:100FE000A7D1109989453ED144F0800406E01399B9
:100FF000681CAAF1010A44F400740860B9696D1C08
:101000001298761E884730288146F0D02BE0109940
:10101000894505D1200603D4761E44F0800418E0EB
:10102000484603F044FD08B3761E0DF123018B45BD
:1010300044F4007408D2A9F130000BF8010B20062B
:1010400007D5AAF1010003E0200602D40AF101004D
:101050008246A00502D51399681C0860B9691298E8
:101060006D1C88478146002ED1DC53E0002E51DDF7
:10107000B9F1650F02D0B9F1450F4BD1A00549D5A3
:10108000B9696D1C1298761E24F440748847002EAE
:1010900081460CDD2B2804D0B9F12D0F07D144F483
:1010A0008074B96912986D1C8847761E8146E005E8
:1010B00001D52D2100E02B2108F8011BCDF800807F
:1010C00021E0761E0DF13901884544F400740CD2FC
:1010D000A9F1300010F0FF0088F8000002D100995B
:1010E000884509D908F1010806E0E00501D51E4848
:1010F00001E042F20F708246B96912986D1C884770
:10110000814613980560002E04DD484603F0CFFCAD
:101110000028D6D1F96912988847FF2053468BF8EA
:10112000000088F8000000200A900B9004AA0CA987
:101130000AA8FFF7ADFDA00502D46FF00100F8E6A4
:1011400014F0240F12D0E0071CD13868DDE90A1230
:10115000031D3B600068C0E9001213E02C70000022
:101160001E700000E26E0000F1D8FFFF0AA9684679
:1011700003F08AFCE00705D13868009A011D396048
:10118000006802602846D4E6426842B1016811F85E
:10119000013B23B1521EC0E90012184670470121DD
:1011A000C160881E704742685AB1C368016843B97C
:1011B00083688B4205D0491E521CC0E900120020F2
:1011C00070474FF0FF3070470FB4002300B589B06F
:1011D0000CA900910B99CB60214B7B440693214BCA
:1011E0007B44079304236FF00042CDE901321E4A8D
:1011F0007A446B4608920246002006F03AFD09B098
:101200005DF814FB70B506464FF0FF3015460C46EE
:10121000324686B00091CDE9010169460020049074
:1012200004A8FFF7D1FF02460498211825B108B1A0
:10123000084600E020462860049800280DD0002AC7
:1012400002DD0098884208D03246081B69460094A7
:10125000CDE9010404A8FFF7B7FF06B070BD000098
:10126000ABFFFFFFC3FFFFFFC50000000048704752
:1012700008030020004870472803002000487047FA
:1012800008030020034640688C46002818BF8842A7
:101290003CBF03464068F8D318681844884207D01A
:1012A0000CF1030020F00700001D411A521A0146FC
:1012B000081D0A60FFF72CB810B50446FFF778FB4D
:1012C0000068005D00F0010010BD00002DE9F0474E
:1012D000814616468AB0354878440DC88DE80D0021
:1012E00032487844801C03AC0DC884E80D0041F6F8
:1012F0009B300844372190FBF1F290FBF1F5A5F10A
:10130000800501FB12041B3C02D56442012000E071
:101310000020DFF898A080460027FA44AAF1BE0A10
:101320000EE0E0070AD03246684607EB470101238A
:101330000AEB810100F084FD8DE8070064107F1C3A
:10134000002CEED1194F7F44AE3F19E0E80715D0CD
:1013500007EB04100DF1180A90E80E008AE80E0061
:10136000C068F04201D1981908903246012306A9BD
:1013700003A800F065FD03AB83E807006D10641C53
:10138000002DE3D14FF0010332466946B8F1000F5A
:1013900003A802D000F02AFD01E000F051FDC9E9E8
:1013A0000001C9F808200AB0BDE8F087946A00007F
:1013B00010B500F06DFABDE8104000F064BA754653
:1013C000FFF754FFAE4605006946534620F007007C
:1013D000854618B020B5FEF759FFBDE820404FF014
:1013E00000064FF000074FF000084FF0000B21F00F
:1013F0000701AC46ACE8C009ACE8C009ACE8C009DC
:10140000ACE8C0098D46704710B5FFF737FF00689C
:1014100010BD10B50446FFF731FF046010BD000099
:101420002DE9FF4F1F464FF03C0987B04FF00042B7
:10143000DDE9141001F10108DDF858A002EA40507E
:101440000390002005908346054604460490B96940
:10145000461E08988847AAF1010A0290BAF1000FC7
:101460003BDD02982E2815D0102100F04CFA002800
:101470002EDB4FF0010B0599014317D0B9F1000F96
:101480000BDB4A46C11700F02BFA05430C43A9F1C8
:10149000040905E0012004900BE008B145F00105C6
:1014A00001200590049820B9361D02E0049800B18F
:1014B000361FB969089808F101088847BBF1000F89
:1014C000AAF1010A0290C9D00999C1F80080C5E7C4
:1014D0000298702808D0502806D0F96908988847E3
:1014E000BBF1000F14D04FE0002002900120BBF1AF
:1014F000000F049009D0B969089808F101088847DD
:10150000AAF10109B9F1000F07DCF96908988847C9
:101510006FF001000BB0BDE8F08F2B2804D02D2810
:101520000CD14FF0FF300490B969089808F1010818
:101530008847A9F10109B9F1000FE6DD411CE4D0AB
:101540000A2100F0E0F90028DFDB029908F1010828
:1015500001EB810100EB41000290B96908988847CE
:101560000A2100F0D0F9099AA9F10109B9F1000F97
:10157000C2F8008001DD0028E7DAF9690898884799
:101580000499029800FB016655EA040004D004F0B7
:101590004041090002D006E0039898E0A40044EA24
:1015A0009574AD00B61E04F00041080002D16D191B
:1015B0006441761E159810F0240F03D04FF00B09EC
:1015C0005C4803E04FF028096FF07D0082465645E5
:1015D00007DAAAEB06018944B9F1410F01DD4FF0AA
:1015E000410901200021A9F1010200F079F9024628
:1015F00028400B462140084301D0012100E0002192
:10160000501E029143F1FF3128402140084301D090
:10161000012000E000200299834651EA0B014FD0DF
:10162000002108464FF00000039900F4400039B152
:1016300000EB80004FF4400100EBD07001EA600045
:101640008015012802DD4FF0FF3000E013D0401C70
:1016500036D0029860B3BBF1000F0CD14A4601208E
:10166000002100F03DF928402140084301D001202D
:1016700000E00020E0B101204A46002100F030F9EE
:10168000034640190A4661412D1A8C4111D3B9F124
:10169000400F09DD159810F0240F02D0AAF134068E
:1016A00003E0AAF1170600E0761C00254FF0004485
:1016B00006E05B1E42F1FF3220EA030521EA020444
:1016C000CAF10100B04206DA1B49039808430190B1
:1016D000002000900EE0039AC4F3D321E80A0A43E5
:1016E000164940EA44500A433146CDE900026846B3
:1016F00003F0D3F9159810F0240F0BD01598C007FC
:1017000015D13868DDE90012031D3B600068C0E9AF
:1017100000120CE002A8694603F0B6F91598C0075C
:1017200005D13868029A011D3960006802604046A0
:10173000F0E6000002FCFFFF0000F07F0000F03F39
:101740002DE9FF4F92461D4685B04FF00041DDE97F
:10175000124BDDE914727F1E01EA4B50414940F003
:10176000FF4940EA0108002122F0200049280491A5
:1017700002D04E2828D04CE03BA0012607C88DE8B7
:101780000700A9690698641C88477F1E014606D495
:101790001DF8060018B121F0200181420BD0E96943
:1017A00006988847032E34D0082E32D06FF00100FF
:1017B00009B0BDE8F08F761C032E01D0082EE0D1D1
:1017C000601CCAF80000DCE7A9690698641C884719
:1017D0007F1E2AD420F02000412826D1A96906982E
:1017E000641C88477F1E20D420F020004E281CD186
:1017F000A9690698641C88477F1E48F4002849F4AC
:101800008009CAF8004001D4282806D0E969069862
:1018100088475FEACB7012D022E0A9690698641C61
:1018200088477F1E01D4002803DAE96906988847B3
:10183000BCE72928F1D1641CCAF80040E9E71BF095
:10184000240F07D028680499031D2B600068C0E9A5
:10185000001805E02868021D2A600068C0F80090A2
:101860002046A5E70000F07F494E46494E495459AD
:101870000000000010B50446AFF300802046BDE82C
:101880001040FEF7E7BC002801D003F017B97047FD
:1018900010B5012805D0002103A000F042F8012076
:1018A00010BD09A1F8E7000053494752544D454D7A
:1018B0003A204F7574206F662068656170206D65F1
:1018C0006D6F7279000000003A2048656170206DEC
:1018D000656D6F727920636F7272757074656400E4
:1018E000B2F120030AD5C2F1200301FA02F120FA75
:1018F00003F300FA02F041EA0301704700FA03F132
:101900004FF0000070473A2800D2303820F0200213
:10191000412A01D3A2F13700884201D34FF0FF30B2
:10192000704770B505460C460A2000E06D1C03F0B8
:10193000C7F835B128780028F8D102E0641C03F01C
:10194000BFF814B120780028F8D1BDE870400A2013
:1019500003F0B6B820F07F4C80EA030023F07F4705
:10196000ACEB070303F57C5300F0004003F1FF03E9
:101970002DE980494FEA154B09B44FEA144325EA93
:101980000B4E24EA03480FF2042606EB13274908FE
:101990003E785FEA320203FB0667C7F5000707FBE4
:1019A00006F64FEA54374FEAD64606F1020607FB21
:1019B000066CCCF1005C4FEA1C472CEA074C07FB95
:1019C00006F40CFB06F504EB15464FEA961634BFF9
:1019D00000204FF000404FEAD13706FB07FC4FEAEA
:1019E0001C4C0CFB0BF7D21B03FB0CF761EB070144
:1019F0000CFB0EF7B0EB074072EB17420CFB08F73D
:101A000034BFA2EB0742B2EB074261EB17414FEA4A
:101A10000C444FEA910706FB07FC4FEA1C4C0CFBF9
:101A20000BF7B0EBC74072EB573203FB0CF734BF38
:101A3000A2EBC742B2EBC74261EB57310CFB0EF78A
:101A4000B0EBC70072EB57720CFB08F734BFA2EB88
:101A5000C702B2EBC70261EB5771039F4FEA816186
:101A600041EA921104EBCC044FEAD1374FEA82628B
:101A700006FB07FC42EA90124FEA80604FEA1C4CDA
:101A80000CFB0BF7D21B03FB0CF761EB07010CFB04
:101A90000EF7B0EB074072EB17420CFB08F734BFB0
:101AA000A2EB0742B2EB074261EB17414FEA8C55BC
:101AB0004FEA910704EB9C2406FB07FC4FEA1C4C01
:101AC0000CFB0BF7B0EBC74072EB573203FB0CF784
:101AD00034BFA2EBC742B2EBC74261EB57310CFBFC
:101AE0000EF7B0EBC70072EB57720CFB08F734BF70
:101AF000A2EBC702B2EBC70261EB577115EB4C25A5
:101B00004FEA816141EA92114FEA82624FEAD1378E
:101B100042EA901206FB07FC44F100044FEA8060A1
:101B20004FEA1C4C0CFB0BF7D21B03FB0CF761EBD1
:101B300007010CFB0EF7B0EB074072EB17420CFBF2
:101B400008F734BFA2EB0742B2EB074261EB174143
:101B500015EB1C154FEA813141EA92414FEA82327E
:101B600042EA90424FEA80304FEA0C7644F100049A
:101B700048EA03434EEA0B484FF0000EB2EB080C64
:101B800071EB030724BF624639464EEB0E0E4FF051
:101B9000000B0018524149414BEB0B0BB2EB080C08
:101BA00071EB03077BF1000B24BF624639464EEB15
:101BB0000E0E4FF0000B0018524149414BEB0B0B3E
:101BC000B2EB080C71EB03077BF1000B24BF6246FC
:101BD00039464EEB0E0E51EA020718BF46F00106D9
:101BE00016EB0E7655F1000254F1000103D5BDE865
:101BF0008901BDE80088BDE88901BDE80048B61943
:101C0000524141EB0101A3F10103704780807F7EC7
:101C10007D7C7B7A79787776767574737271717062
:101C20006F6E6E6D6C6C6B6A6A6968686766666514
:101C30006464636362616160605F5F5E5E5D5D5CA2
:101C40005C5B5B5A5A595958585757565655555513
:101C50005454535352525251515050504F4F4F4E73
:101C60004E4D4D4D4C4C4C4B4B4B4A4A4A494949C1
:101C70004848484747474746464645454544444403
:101C800044434343434242424241414146EA0646BD
:101C9000A3F570534FEA164646EA42564FEAD2225F
:101CA00042EA415210B54FEAD121A3F1010300F0FD
:101CB0002FF820F0004000F1020C00F0004701EB8B
:101CC00000501146BCF5006F40EA070000D210BD7D
:101CD000BAF1000F0AD01CB503B44FF004004FF066
:101CE00004014FF000000FBCBDE810404FF00001B0
:101CF000BBF1010FB9BF04484FF0FF310348002189
:101D000040EA070010BD00BFFFFFEF7F0000F07F3B
:101D1000002B9C4630D477002BD01CB54FEA3707F8
:101D200003B44FF010004FF01001BAF1000F06D0CD
:101D3000BCF1000FDCBF40F0080040F008014FF09C
:101D400000000FBCBDE810400BF1010BBBF1010F0F
:101D500008BF5FEA170722BF12F1010211F101016A
:101D60004FF0004143F1000300F0004043EA00005F
:101D70007047F9D35708D0E746EA064613F1400FFB
:101D80004FEA16461FDD13F1200FDFBF16430A4648
:101D9000002120335B42BED0C3F1200746EA06464D
:101DA00002FA07F74FEA164646EA0706C3F120078C
:101DB00022FA03F201FA07F721FA03F14FF00003C8
:101DC00042EA0702A7E746EA020646EA06464FEA63
:101DD000164646EA0106BCBF46EA0646360C4FF0F8
:101DE00000034FF000024FF0000194E72DE9804C12
:101DF0009A46934670B491E8380007C831EA400C1F
:101E000048BF34EA430C03D5FFF7A4FDFFF780FF7A
:101E1000F0BCBDE8008C2DE9804C9A46934670B426
:101E200091E8380007C831EA400C48BF34EA430C57
:101E300003D5FFF78FFDFFF729FFF0BCBDE8008C4D
:101E40002DE9804C9A46934670B491E8380007C853
:101E500010F0804F08BF13F0804F03D100F01AF844
:101E6000FFF756FFF0BCBDE8008C2DE9804C9A4688
:101E7000934670B491E8380007C810F0804F08BF4F
:101E800013F0804F03D100F005F8FFF7FFFEF0BC20
:101E9000BDE8008C20F07F4780EA030023F07F4CF0
:101EA00007EB0C03A3F57C5300F00040A3F1FE0305
:101EB00092F0000F00F0B38095F0000F00F07780F3
:101EC0002DE901494FEA11404FEA144621EA004842
:101ED00000FB06FC24EA064708FB06F607FB08F8A9
:101EE00000FB07F718EB06484CEB164C4FEA124B79
:101EF00018EB07484FEA15464CEB174022EA0B4E09
:101F00000BFB06FC25EA06470EFB06F607FB0EFE5A
:101F10000BFB07F71EEB064E4CEB164C4FF0000682
:101F20001EEB074E4CEB174B18EB0B0840F1000073
:101F300018EB0E0B58EB000840F100008F1A4FF021
:101F400000013CBFC943661B14BFB5EB040C002164
:101F50003CBFC943F61B4FEA17444EEA8E0E27EAF0
:101F600004454FEA1C4704FB07622CEA074C05FBBB
:101F700007F70CFB05F604FB0CFC16EB074642EBDF
:101F8000174216EB0C4642EB1C421BEB060658EBC5
:101F90000202414146EA9E0601D5BDE80189B61913
:101FA000524141EB0101A3F10103BDE801894FEA70
:101FB00014454FEA114724EA054621EA074C05FB80
:101FC00007F406FB07F70CFB06F105FB0CFC11EB15
:101FD000074144EB17444FEA124711EB0C4144EB25
:101FE0001C4422EA074C05FB07F206FB07F70CFB33
:101FF00006F605FB0CFC16EB074642EB174216EB08
:102000000C4642EB1C456A1854F1000148BF70476A
:10201000B619524141EB0101A3F10103704795F05C
:10202000000F37D04FEA11424FEA144721EA024627
:1020300024EA074C02FB07F106FB07F70CFB06F44A
:1020400002FB0CFC14EB074441EB17414FEA154728
:1020500014EB0C4441EB1C4125EA074C02FB07F54D
:1020600006FB07F70CFB06F602FB0CFC16EB07461B
:1020700045EB174516EB0C4645EB1C42121951F186
:10208000000148BF7047B619524141EB0101A3F16D
:10209000010370474FEA14454FEA114724EA054609
:1020A00021EA074C05FB07F106FB07F70CFB06F2DC
:1020B0004FF0000605FB0CFC12EB074241EB174109
:1020C00012EB0C4251EB1C4148BF7047921841EB98
:1020D0000101A3F10103704770B500254FF480346E
:1020E00004E0802000F0F6FD00B103E0201EA4F122
:1020F0000104F6D100BF0CB9032070BD40F2FF50BF
:1021000000F0BEFD2846F8E770B5044605E0164825
:10211000056805F0450000B100E0F8E700BF0420C5
:1021200000F0D8FD20B1042000F0AAFD032070BD0E
:10213000012000F0CFFD20B1012000F0A1FD012021
:10214000F5E7094824380068A04201D01020EEE7E6
:1021500040F2FF5000F094FD034820380068082149
:102160000840C0B2E3E70000342C014070B50026FF
:102170004FF4803505E01148046804F0450000B1D3
:1021800003E0281EA5F10105F5D100BF15B104F04B
:10219000040028B10326042000F072FD304670BD13
:1021A000012000F097FD18B10126012000F068FD24
:1021B00040F2FF5000F064FD3046F0E7342C01405F
:1021C00010B505E00B48046804F0450000B100E0DC
:1021D000F8E700BF042000F07DFD20B1042000F0EE
:1021E0004FFD032010BD40F2FF5000F049FD0020DC
:1021F000F8E70000342C01402DE9F04105460E4679
:102200004FF0000805E02048076807F0450000B1DE
:1022100000E0F8E700BF042000F05CFD28B10420D6
:1022200000F02EFD0320BDE8F081012000F052FDFA
:1022300020B1012000F024FD0120F4E712482438E9
:102240000068A84201D01020EDE740F2FF5000F0F6
:1022500017FD0D482038046804F4604018B9200CBC
:1022600030804046DFE704F4005008B11320DAE77D
:1022700004F4804008B11020D5E704F4004008B110
:102280000F20D0E74046CEE7342C014070B5002641
:102290004FF4803505E00F48046804F0450000B1B4
:1022A00003E0281EA5F10105F5D100BF15B104F02A
:1022B000040028B10326042000F0E2FC304670BD83
:1022C00004F0400018B10026402000F0D9FC304650
:1022D000F5E70000342C014021B1026842F0010210
:1022E000026003E0026822F0010202607047000011
:1022F000016821F0010101600021016041608160FD
:10230000C1600161212141614A49884204D13D21D6
:10231000484A103A91608CE046491831884205D10C
:102320004FF47461434A103A916082E04149303180
:10233000884205D14FF474113E4A103A916078E01A
:102340003C494831884205D14FF07461394A103A0E
:1023500091606EE037496031884204D13649354A90
:10236000103AD16065E033497831884204D133496D
:10237000304A103AD1605CE02E499031884204D155
:102380002F492C4A103AD16053E02A49A83188429B
:1023900005D14FF03D51274A103AD16049E0294913
:1023A000884204D13D21274A083A116041E025497D
:1023B0001831884205D14FF47461224A083A1160FD
:1023C00037E020493031884205D14FF474111D4A5D
:1023D000083A11602DE01B494831884205D14FF081
:1023E0007461184A083A116023E016496031884246
:1023F00004D11149134A121F11601AE011497831B2
:10240000884204D10D490F4A121F116011E00D4995
:102410009031884204D10A490A4A121F116008E02B
:102420000849A831884204D14FF03D51054A121F96
:1024300011607047106002403D000020400F0020F6
:1024400000003D201064024021B1026842F02002E9
:10245000026003E0026822F0200202607047014639
:1024600000200A6802F001020AB1012000E0002009
:102470007047000010B500220268134B1A40CC6868
:102480000B6823434C6923438C692343CC69234362
:102490000C6A23434C6A23438C6A23434C6B2343CB
:1024A0008C6B23431A430260426922F00702D1E990
:1024B0000B3423431A4342610B6943604B688360CA
:1024C0008B68C36010BD00003F801CF001490860AC
:1024D000704700000C3C024030B10749096841F4E4
:1024E0008061054A116005E00349096821F48061B3
:1024F000014A116070470000003C024070B504467C
:102500000A460026092502B909E0012A01D116026E
:1025100005E0022A01D1160201E04FF4407600F0F6
:102520009DF80546092D28D11548006820F4407013
:102530001349086008460068304308600846006890
:1025400020F0F80008600846006844F002010843E3
:102550000B4908600846006840F48030086000F0CD
:102560007DF805460648006820F00200044908602E
:102570000846006820F0F8000860284670BD00009A
:10258000103C024009201349096801F48031B1F57B
:10259000803F01D101201CE00E49096801F01001C3
:1025A00009B1062015E00B49096801F4807109B1F1
:1025B00002200EE00749096801F0E00109B1072097
:1025C00007E00449096801F0020109B1082000E0B0
:1025D000092070470C3C02400348006840F000406E
:1025E0000149086070470000103C024030B50246C7
:1025F0000C46092500F032F80546092D17D10D4883
:10260000006820F440700B490860084600680860C4
:102610000846006840F001000860147000F01EF8E1
:1026200005460448006820F0010002490860284679
:1026300030BD0000103C02400548006800F000403A
:1026400028B1044802490C39086003480860704703
:10265000103C024023016745AB89EFCD08B5092046
:102660000090FFF78FFF009002E0FFF78BFF0090D4
:102670009DF800000128F8D09DF8000008BD00007A
:102680002DE9FC4107460D4600260024002000905D
:10269000019008205B490860102048604020886055
:1026A0000020C8604FF480600861084600F05EFBBF
:1026B0001020FFF729FD044614B12046BDE8FC8137
:1026C0005148008800044F49086037204860402086
:1026D00088600020C8604FF480600861084600F000
:1026E00045FB3720FFF710FD04460CB12046E5E717
:1026F0004FF0FF304549086008204860302088606E
:102700000220C8600020086101204861084600F0EE
:10271000C7FA00203B4908603320486040208860A9
:102720000020C8604FF480600861084600F01EFB7E
:102730003320FFF7E9FC04460CB12046BEE70CE06D
:102740004FF4001000F0C6FA38B1314800684DF877
:102750002600761C022E00D307E02D484C38006876
:1027600040F22A6108400028EAD000BF082000F0AB
:10277000B1FA20B1082000F083FA04209EE702207D
:1027800000F0A8FA20B1022000F07AFA022095E7C2
:10279000202000F09FFA20B1202000F071FA0620DE
:1027A0008CE74FF4007000F095FA28B14FF40070F8
:1027B00000F066FA072081E740F2FF5000F060FA6F
:1027C00000980006009901F47F4140EA0120009939
:1027D00001F47F0140EA1120009940EA116068602D
:1027E00001980006019901F47F4140EA0120019916
:1027F00001F47F0140EA1120019940EA116028604C
:1028000020465BE7600000200C00002074000020E0
:10281000802C0140F0B50A4600210023002400BFAF
:102820003DE0012505FA01F3156805EA03049C4221
:1028300034D105684F000326BE40B54305601579C5
:102840004E00B5400668354305601579012D02D06C
:102850001579022D16D185684F000326BE40B54379
:10286000856055794E00B54086683543856045687A
:1028700001268E40B5434560456896798E40B6B2D4
:1028800035434560C5684F000326BE40B543C5606B
:10289000D5794E00B540C6683543C560491C10293E
:1028A000BFD3F0BDF0B5002300244D07ED0E02FAB2
:1028B00005F3CE1000F1200555F826504E07F70E0F
:1028C0000F26BE40B543CF1000F1200646F8275032
:1028D000CE1000F1200555F8265045EA0304CE102D
:1028E00000F1200545F82640F0BD4FF6FF7101606C
:1028F0000021017141718171C17170471CB504469D
:1029000000200190009022480088000421490860BE
:102910000D204860402088600020C8604FF480602F
:102920000861084600F022FA1B480068009002E0A7
:10293000194800680090009800F045000028F7D082
:10294000012000F0C7F920B1012000F099F9012021
:102950001CBD042000F0BEF920B1042000F090F965
:102960000320F5E70C48243800680D2801D010201A
:10297000EEE740F2FF5000F083F907482038006886
:1029800001900198C0F3432020700020E0E7000090
:102990000C00002060000020342C01401CB50121F7
:1029A000084600F063F86846FFF79FFF7820009024
:1029B00001208DF8040000208DF8060069460C48BF
:1029C000FFF728FF0A48406920F0400008494861A5
:1029D0000846406920F0200048610846406920F020
:1029E000080048610846406920F0100048611CBD9D
:1029F0000000024070B5002100230F22C4781CB3F0
:102A0000174C246804F4E064C4F5E064C4F30721BF
:102A1000C1F10404E3B20A4144789C40E1B28478F5
:102A2000144021430C07210E0E4C057861550478A3
:102A300004F01F050124AC4005786D11AD0005F1CF
:102A4000E025C5F8004109E0047804F01F050124E1
:102A5000AC40054D0678761145F8264070BD000063
:102A60000CED00E000E400E080E100E029B1064A5E
:102A700012680243044B1A6004E0034A126882435E
:102A8000014B1A60704700003038024029B1064AF5
:102A900012680243044B1A6004E0034A126882433E
:102AA000014B1A60704700004038024029B1064AC5
:102AB00012680243044B1A6004E0034A126882431E
:102AC000014B1A60704700004438024029B1064AA1
:102AD00012680243044B1A6004E0034A12688243FE
:102AE000014B1A607047000024380240F0B5002105
:102AF00000220024022500260223324F3F6807F0FF
:102B00000C0121B1042905D0082937D105E02E4F49
:102B1000076036E02D4F076033E02A4F3F1F3F68C4
:102B2000C7F38056274F3F1F3F6807F03F036EB142
:102B3000264FB7FBF3F7DFF88CC0ACF1040CDCF8E0
:102B400000C0CCF3881C07FB0CF40CE01E4FB7FB55
:102B5000F3F7DFF870C0ACF1040CDCF800C0CCF384
:102B6000881C07FB0CF4174F3F1F3F68C7F3014752
:102B70007F1C7D00B4FBF5F7076002E0124F076091
:102B800000BF00BF0F4F3F6807F0F0010909104F69
:102B90007A5C0768D74047600A4F3F6807F4E05106
:102BA000890A0B4F7A5C4768D7408760054F3F68BA
:102BB00007F46041490B064F7A5C4768D740C7600D
:102BC000F0BD0000083802400024F40000127A0032
:102BD0002C0000207CB505460024002000900190C8
:102BE00000260DB1022600E000262248006800F011
:102BF000007008B10E207CBD1F49098888B2694663
:102C0000FFF73EFD04460CB12046F4E7019800F4BE
:102C1000802060B3184800880004184908603720F5
:102C20004860402088600020C8604FF480600861E0
:102C3000084600F09BF83720FFF766FA04460CB10F
:102C40002046D8E70D48066006200C494860402021
:102C500088600020C8604FF480600861084600F07A
:102C600085F80620FFF750FA04462046C3E72520E2
:102C7000C1E70000142C01400C000020600000207F
:102C80000149086070470000382C01400146034AA2
:102C9000106820F0FF00084310607047042C0140CA
:102CA00000210B4B02681A601B1D42681A601A1D36
:102CB000116821F0F701D0E902231A4303691A438E
:102CC00043691A431143024A0832116070470000F9
:102CD000242C014001460020034A12680A400AB130
:102CE000012000E000207047342C014002480068B9
:102CF00000F0030070470000002C014010B500F008
:102D00006FFC10BD00210A4A116847F6FF6291432B
:102D1000027D83681A4343681A43C3681A430368F1
:102D20001A4303691A431143014A116070470000B6
:102D3000042C014000200B490860091D0860091D92
:102D40000860091D0860074924310860091D0860F2
:102D5000091D086004480349383108600020091D36
:102D600008607047002C0140FF07C0000021094B9C
:102D700002681A601A1D11686FF30A01D0E9012375
:102D80001A43C3681A4303691A431143014A121DC7
:102D900011607047082C014001490860704700002D
:102DA000002C014070B590B004460E46154600BF99
:102DB0001A48FFF754FB0028FAD11848FFF798FA91
:102DC0004FF0006001901648029003940495002093
:102DD000059006904FF48060079080000890800076
:102DE000099000200A904FF440300B9004200C9082
:102DF00003200D904FF400000E9080100F9001A959
:102E00000648FFF737FB20210448FFF71DFB01218F
:102E10000248FFF761FA10B070BD0000586402402C
:102E2000802C014070B50446002516480078032820
:102E300002D12725284670BD1248007838B11148C4
:102E40000078012803D00F480078022817D1B4F584
:102E5000805F02D127252846EDE7E0B2FFF7BAFEF2
:102E6000054665B90848006820F4C0500649086066
:102E70000846006820430860084600680860284645
:102E8000D9E7000008000020042C0140F0B50146FD
:102E900000200022BE4B1B7881F85630BD4B1B88AA
:102EA000A1F85430BC4B1B681A0E93090B70C2F387
:102EB00083034B7002F003038B70B74B1B68C3F3A3
:102EC0000742CA70B44B1B88C3F307220A71B24B86
:102ED0001A784A715B681A0E1301CB80AE4B5B689F
:102EE000C3F30742CB8843EA1213CB8002F00F03EF
:102EF0000B72A94B9B88C3F30722D3094B72C2F311
:102F000080138B72C2F34013CB72C2F300130B73A6
:102F100000234B739E4B1B783BB19D4B1B78012BC1
:102F200003D09B4B1B78032B4FD193071B0D0B61D9
:102F3000994B1A790B6943EA82030B61964B9B68A4
:102F40001A0E0B6943EA92130B61C2F3C2030B75AD
:102F500002F007034B75904B9B68C3F3074253097C
:102F60008B75C2F38203CB7593075B0F0B768A4B8D
:102F70001B89C3F307220B7E43EAD2130B760B693E
:102F80005B1C0024C1E912340B7E9B1C012404FA53
:102F900003F3DC17D1E91256A5FB037C06FB03C340
:102FA00005FB0433C1E912730C7A0123A3400B65BE
:102FB0000024D1E912650B6DA6FB037C05FB03C35E
:102FC00006FB0433C1E912732EE0714B1B78022B10
:102FD0002AD1714B1A7993069B0A0B616E4B9B6841
:102FE0001A0E0B6943EA02230B616B4B9B68C3F318
:102FF00007420B6913430B61674B1B89C3F307221D
:103000000B695B1C4FF40074A3FB04464FF4806310
:103010000025A4FB037C06FB03C304FB0533C1E9C5
:1030200012734FF400730B65C2F3801301F8193F5C
:1030300093065B0E4B70584B1A7A4B7843EAD213C7
:103040004B7002F07F038B70534BDB681A0ED30971
:10305000CB70C2F341130B71C2F382034B71930720
:103060001B0F8B714C4BDB68C3F307428B7943EA30
:1030700092138B71C2F34013CB7100230B7202F0D9
:1030800001034B72444B9B89C3F30722D3098B7214
:10309000C2F38013CB72C2F340130B73C2F300135D
:1030A0004B73C2F381038B7302F00303CB733A4B70
:1030B0001A7B53080B7401234B74384B1B681A0E90
:1030C000CA741939354B1B68C3F307421402CC8507
:1030D000324B1B88C3F30722CB8D1343CB852F4B79
:1030E0001A7814060C635B681A0E0B6B43EA0244F1
:1030F0000C632A4B5B68C3F307420B6B43EA022461
:103100000C63264B9B88C3F307220B6B13430B63A3
:10311000224B1A7934235A54204B9B681A0E3523BC
:103120005A541E4B9B68C3F3074214068C631B4B17
:103130001B89C3F307228B6B43EA02448C63174B52
:103140001A7A8B6B43EA02248C63144BDB681A0EE9
:103150008B6B13438B63114BDB68C3F307423C2338
:103160005B5C43EA12143C235C5413071C0DCC87B0
:103170000A4B9B89C3F30722CB8F1343CB87074BA3
:103180001A7B540840235C54012441235C54F0BD55
:10319000080000200C0000208C0000209C00002073
:1031A0003EB5002401213748FFF760FC0121C80229
:1031B000FFF77CFC0121C802FFF788FC4FF4885020
:1031C000019002208DF808008DF8090000208DF88C
:1031D0000A0001208DF80B0001A92B48FFF71AFB0C
:1031E0000420019001A92948FFF714FB0C220821B3
:1031F0002548FFF757FB0C2211462348FFF752FBE7
:103200000C2202212148FFF74DFB00214FF4006002
:10321000FFF75CFCFFF78EFD31208DF800000020E9
:103220008DF801008DF8020001208DF8030068463A
:10323000FFF7E0FB00F0E2F8044614B900F02CF8C8
:1032400004461CB91248FFF721FE044634B9104960
:10325000B1F85410080400F06BFD04461CB90020BE
:10326000FFF7E0FD04461CB10A480078032806D1A8
:103270000020FFF70BFD002000F072FD0446204601
:103280003EBD00000C00400000080240000C02405F
:10329000B00000200800002038B500240120009074
:1032A000FFF724FD10B92524204638BD4D4800788D
:1032B000042824D000204C49086002204860C02027
:1032C00088600020C8604FF4806008610846FFF7FE
:1032D0004DFDFEF74BFF04460CB12046E5E74348A1
:1032E0000068434908604148001D006848603F4845
:1032F0000830006888603D480C300068C860394874
:10330000007858B137480078012807D03548007850
:10331000062803D033480078022816D1002032490D
:10332000086003204860402088600020C8604FF497
:10333000806008610846FFF719FD69460320FEF723
:103340005BFF04460CB12046AFE72648007803280F
:1033500016D1BDF80000000423490860032048602E
:10336000402088600020C8604FF4806008610846F3
:10337000FFF7FCFCFEF7FAFE04460CB1204694E78A
:103380001848007804282AD0BDF8000019490860C0
:10339000BDF8000000041449086009204860C020FE
:1033A00088600020C8604FF4806008610846FFF71D
:1033B000DDFCFEF7DBFE04460CB1204675E70B484A
:1033C00000680D4908600948001D0068486007480A
:1033D00008300068886005480C300068C86000202C
:1033E00063E700000800002060000020142C01406A
:1033F0009C0000200C0000208C0000202DE9F047EC
:103400000027002400260025A046A14676206E490C
:1034100008750020086048608860C8600861084638
:10342000FFF770FC0320FFF7B7FC6848006840F422
:1034300080706649086000BF12E00020644908609F
:1034400048608860C8604FF4806008610846FFF7F4
:103450008DFCFEF741FE044604B903E0781CC7B2B8
:103460004A2FEADB00BF14B12046BDE8F0874FF4D5
:10347000D5705749086008204860402088600020C7
:10348000C8604FF4806008610846FFF76FFCFEF7E4
:10349000FDFE044624B901204E4908704FF08049D2
:1034A00000204B4908603720486040208860002099
:1034B000C8604FF4806008610846FFF757FC37206A
:1034C000FEF722FE0446002C4CD135E00020404996
:1034D000086037204860402088600020C8604FF4B2
:1034E000806008610846FFF741FC3720FEF70CFEBC
:1034F00004460CB12046B8E7374849EA0000344991
:10350000086029204860402088600020C8604FF48F
:10351000806008610846FFF729FCFEF751FE04466B
:103520000CB12046A1E7294810300668012080EA46
:10353000D67080F001086D1CB8F1000F03D14FF672
:10354000FF708542C2D34FF6FF70854202D31B2421
:1035500020468AE706F08040061E33D002201D492F
:1035600008702FE01DE01D481949086001204860DF
:10357000402088600020C8604FF4806008610846E1
:10358000FFF7F4FBFEF71CFE04460CB120466CE787
:103590000E4810300668012080EAD67080F00108DD
:1035A0006D1CB8F1000F03D14FF6FF708542DAD3DE
:1035B0004FF6FF70854202D31B24204655E70320B7
:1035C00004490870204650E748000020042C0140C0
:1035D0006000002008000020000010800080FF80B4
:1035E00010B54FF48070FFF775FB78B34C48007846
:1035F000012814D100204B4908600C20486040206D
:1036000088600020C8604FF4806008610846FFF7BA
:10361000ADFB0C20FEF778FD4349087002E0002066
:10362000414908704148006840F480703F49086093
:10363000081D00684CF23A3188433C49091D086076
:1036400001203B4908703848007810BDFFE7022090
:10365000FFF740FB78B10220FFF712FB3348001D53
:1036600000684CF23A3188433049091D0860022055
:103670002D490870E9E70820FFF72CFB78B10820F6
:10368000FFF7FEFA2948001D00684CF23A318843E2
:103690002649091D0860042023490870D5E7202029
:1036A000FFF718FB78B12020FFF7EAFA1F48001D4A
:1036B00000684CF23A3188431C49091D0860062015
:1036C00019490870C1E71020FFF704FB78B11020FA
:1036D000FFF7D6FA1548001D00684CF23A318843CE
:1036E0001249091D086005200F490870ADE74FF425
:1036F0000070FFF7EFFA80B14FF40070FFF7C0FAE7
:103700000A48001D00684CF23A3188430749091DF8
:10371000086007200449087097E7002095E700003B
:10372000110000206000002012000020382C014011
:10373000130000202DE9F84F8146174698460A9C51
:103740004FF0000AD3464D464FF0FF36B9F1000F57
:1037500002D12620BDE8F88F0020864908608648FF
:103760000078022805D10402780A40EAC8574FEAD7
:1037700068280020814988604860401E0860012058
:1037800048610020C86008610846FFF789FA794857
:103790001838006800F0007008B10E20DAE7002C3D
:1037A00021DDB4F5006F1EDC601E2040D8B9204634
:1037B00001F0DFFA00907248046010207049486000
:1037C000402088600020C8604FF48060086108468F
:1037D000FFF7CCFA1020FEF797FC8246BAF1000FF3
:1037E00003D05046B6E72620B4E7009800016349AD
:1037F0008860084644604FF0FF300860012048614F
:103800000220C860002008610846FFF749FA5C48BA
:10381000076011205A494860402088600020C86035
:103820004FF4806008610846FFF7A0FA1120FEF708
:103830006BFC8246BAF1000F01D050468AE751482E
:10384000007800285CD1FCF70FFD18E04FF4004031
:10385000FFF740FA78B14FF0000B06E045485430CE
:10386000006845F82B000BF1010BBBF1080FF5D3F5
:103870002035454E03E00EB904206BE7761E3D4827
:103880000830006840F22A6108400028DED0082095
:10389000FFF720FA20B10820FFF7F2F9042059E7DA
:1038A0000220FFF717FA20B10220FFF7E9F9022002
:1038B00050E72020FFF70EFA20B12020FFF7E0F9B3
:1038C000062047E74FF40070FFF704FA28B14FF4E1
:1038D0000070FFF7D5F907203CE704E02548543095
:1038E000006828602D1D4FF40010FFF7F3F9002841
:1038F000F4D1FCF7BBFC40F2FF50FFF7C1F936E012
:1039000020480078012832D1002020490870204941
:1039100008702049087017481030006840F22A31BA
:1039200008431449103108601248006840F008004C
:1039300010490860002221464846FFF733FA00E0AC
:10394000761E1548006800F0006038B9114800780C
:1039500020B90E48007808B9002EF1D10EB9042024
:10396000F8E60A48007810B1084890F800A05046E0
:10397000F0E600002C2C014008000020740000201C
:103980006000002010000020FFFF7F0012000020D8
:103990001100002013000020006402402DE9FE4FBA
:1039A00083460E4691460020029000253446214869
:1039B000007818B1680240EAD45564020BF00300A5
:1039C000F0B14FF0000A18E04FF4007000904FEA99
:1039D0004A20071945EBE0733A461748FFF7AAFE5D
:1039E00002904FF4007214495846FCF7FFFE0BF5A5
:1039F000007B0AF1010000F0FF0ACA45E4DB16E093
:103A0000B9F1010F09D14FF4007022462B46009006
:103A10005846FFF78FFE029009E04FF400702246EF
:103A20002B46CDE90009584600F008F802900298AC
:103A3000BDE8FE8F08000020080100202DE9FF5F8F
:103A400017469846DDE90E464FF00009CA464FF08A
:103A5000FF35AC49009808600020AB490860AB48CE
:103A60000078022805D10402780A40EAC8574FEAD4
:103A700068280020A64988604860401E0860012030
:103A800048610020C86008610846FFF709F99E48B0
:103A90001838006800F0007018B10E2004B0BDE8BE
:103AA000F09F002C21DDB4F5006F1EDC601E20406D
:103AB000D8B9204601F05DF983469648046010208D
:103AC00094494860402088600020C8604FF48060BE
:103AD00008610846FFF74AF91020FEF715FB8146FA
:103AE000B9F1000F03D04846D8E72620D6E7012ECB
:103AF00071D906FB04F0B0F1007F01D32620CDE799
:103B00004FEA0B108249886006FB04F048604FF0D2
:103B1000FF300860012048610220C8600020086171
:103B20000846FFF7BDF87B480760122079494860D6
:103B3000402088600020C8604FF48060086108461B
:103B4000FFF714F91220FEF7DFFA8146B9F1000FF2
:103B500001D04846A2E77048007800287ED1FCF7E3
:103B600083FB1EE04FF40040FFF7B4F8A8B14FF01C
:103B7000000A08E06448543000686249096841F866
:103B80002A000AF1010ABAF1080FF3D35D48006870
:103B900020305C490860614D03E00DB904207DE7E9
:103BA0006D1E59480830006840F22A31084000284C
:103BB000D8D00820FFF78EF820B10820FFF760F872
:103BC00004206BE70220FFF785F828B10220FFF7F9
:103BD00057F8022062E792E02020FFF77BF820B13F
:103BE0002020FFF74DF8062058E74FF40070FFF74C
:103BF00071F828B14FF40070FFF742F807204DE745
:103C00000AE04148543000683E49096808603D4870
:103C10000068001D3B4908604FF40010FFF75AF898
:103C20000028EED14FF48070FFF754F820B33748E6
:103C3000007838B135480078012803D0334800783F
:103C4000022819D10020334908600C204860402028
:103C500088600020C8604FF4806000E013E00861D5
:103C60000846FFF783F80C20FEF74EFA8146B9F1BB
:103C7000000F01D0484611E7FCF7F8FA40F2FF5078
:103C8000FEF7FEFF3BE024480078012837D10020F2
:103C90002349087001202349087000202249087038
:103CA00019481030006840F22A3108431649103193
:103CB00008601548006840F008001349086006FBDA
:103CC00004F100220098FFF76DF800E06D1E174820
:103CD000006800F0006008B9002DF7D10DB904208C
:103CE000DCE600BF1048007818B90D4800780028BD
:103CF000F8D00B48007810B1094890F80090484679
:103D0000CCE60000140000202C2C0140080000200C
:103D1000740000206000002010000020FFFF7F00E2
:103D20001200002011000020130000200064024057
:103D300010B504460948046007200849486040203F
:103D400088600020C8604FF4806008610846FFF773
:103D50000DF80720FEF7D8F910BD00006000002024
:103D600001460020012900D011B9024B197000E072
:103D700026207047100000202DE9FF5F86B017460F
:103D80009846149D0026002005900490002481464A
:103D90000390824602900195DDF818B0DDF818B066
:103DA000BBF1000F03D126200AB0BDE8F09F002030
:103DB000C9490860C94988604860401E0860012000
:103DC00048610020C86008610846FEF769FFC248E4
:103DD0001838006800F0007008B10E20E4E7C04811
:103DE0000078022805D10502780A40EAC8574FEA50
:103DF0006828002D1FDDB5F5006F1CDC681E28400B
:103E0000C8B9284600F0B5FF0590B64805601020F7
:103E1000B4494860402088600020C8604FF480604A
:103E200008610846FEF7A2FF1020FEF76DF906466E
:103E30001EB13046B8E72620B6E7AB48008800043C
:103E4000A84908600D204860402088600020C860B4
:103E50004FF4806008610846FEF788FF0D20FEF7EA
:103E600053F906460EB130469EE79B481838006865
:103E700003904FF0FF341CE0641E9B480088000450
:103E8000984908600D204860402088600020C86084
:103E90004FF4806008610846FEF768FF0D20FEF7CA
:103EA00033F906460EB130467EE78B481838006875
:103EB0000390039800F4807008B9002CDCD10CB991
:103EC000292071E78748076018208649486040200C
:103ED00088600020C8604FF4806008610846FEF7E3
:103EE00045FF1820FEF710F906460EB130465BE795
:103EF00000207E49087005980001784988600846CE
:103F000045604FF0FF300860012048610020C86024
:103F100008610846FEF7C4FE4FF0FF34744800788D
:103F200000287ED1FCF7A0F945E04FF48040FEF771
:103F3000D1FED8B30198A0EB0900202822D2019825
:103F4000A0EB090000F0030020B90198A0EB0900E4
:103F5000800804E00198A0EB09008008401C029052
:103F60004FF0000A0AE05C495431DBF800000860B9
:103F70000AF1010A0BF1040B09F1040902988245C8
:103F8000F1D310E04FF0000A06E05BF82A00524936
:103F9000543108600AF1010ABAF1080FF5D30BF1A8
:103FA000200B09F120096FF0404404E0FFE70CB951
:103FB0000420F9E6641E48480830006840F21A619F
:103FC00008400028B1D00820FEF784FE20B1082068
:103FD000FEF756FE0420E7E60220FEF77BFE20B146
:103FE0000220FEF74DFE0220DEE61020FEF772FEF4
:103FF00020B11020FEF744FE0520D5E64FF40070F6
:10400000FEF768FE30B14FF40070FEF739FE07206E
:10401000CAE606E0FCF72AF940F2FF50FEF730FE50
:1040200041E03348007801283DD100203149087033
:104030002E4908703049087027481030006840F257
:104040001A31084324491031086040222946069855
:10405000FEF7A8FE2048006840F008001E490860EE
:1040600000E0641E2548006800F0006008B9002CDC
:10407000F7D11CB9FFF794F8042095E64FF0FF3410
:1040800000E0641E1C48007820B91A48007808B97E
:10409000002CF6D10CB9042086E61648007810B141
:1040A0001448007880E640F2FF50FEF7E9FD04A8CE
:1040B000FEF724FC064603E004A8FEF71FFC0646B4
:1040C0003EB99DF810000728F6D09DF8100006288C
:1040D000F2D0304668E600002C2C0140740000202D
:1040E00008000020600000200C00002011000020CB
:1040F0001000002012000020130000200064024085
:104100002DE9FE4F06468946924600200290002582
:104110004C462148007818B1680240EAD455640240
:1041200006F00300F0B14FF0000B18E04FF40072FE
:1041300031461A48FCF75AFB4FF4007000904FEAE2
:104140004B20071945EBE0733A461448FFF714FE7D
:10415000029006F500760BF1010000F0FF0BD3454D
:10416000E4DB16E0BAF1010F09D14FF400702246EA
:104170002B4600903046FFF7FFFD029009E04FF418
:10418000007022462B46CDE9000A304600F008F8C0
:1041900002900298BDE8FE8F080000200801002070
:1041A0002DE9FF5F84B0DDE912470026002003906F
:1041B0000290002580468146019007FB04FBDDF854
:1041C00010A0DDF810A0BAF1000F03D1262008B02E
:1041D000BDE8F09F0020DC490860DC498860486049
:1041E000401E0860012048610020C8600861084640
:1041F000FEF756FDD4481838006800F0007008B18A
:104200000E20E4E7D2480078022808D10402DDE954
:104210000601400A40EAC1504912CDE90601002CCE
:104220001FDDB4F5006F1CDC601E2040C8B92046BD
:1042300000F09FFD0390C74804601020C549486006
:10424000402088600020C8604FF480600861084604
:10425000FEF78CFD1020FDF757FF06461EB13046D5
:10426000B5E72620B3E7012F6FD907FB04F0B0F1C3
:10427000007F01D32620AAE7B548007838B1B448BA
:104280000078012803D0B248007802282DD1B24826
:1042900000880004AF4908603720486040208860EB
:1042A0000020C8604FF4806008610846FEF75EFD9C
:1042B0003720FDF729FF06460EB1304687E7A548AF
:1042C00007601720A3494860402088600020C8602C
:1042D0004FF4806008610846FEF748FD1720FDF79F
:1042E00013FF06460EB1304671E79A4906980860FA
:1042F00019204860402088600020C8604FF480602A
:1043000008610846FEF732FD1920FDF7FDFE06465E
:104310000EB130465BE7039800018C49886007FBCB
:1043200004F048604FF0FF30086001204861002031
:10433000C86008610846FEF7B3FC8848007800288A
:1043400074D1451EFBF790FF42E0E4E04FF480405B
:10435000FEF7C0FCB8B3ABEB080020281FD2ABEBD4
:10436000080000F0030018B9ABEB0800800803E078
:10437000ABEB08008008401C01904FF000090AE0F8
:1043800071495431DAF80000086009F101090AF1B5
:10439000040A08F1040801988145F1D310E04FF0B8
:1043A000000906E05AF8290067495431086009F10C
:1043B0000109B9F1080FF5D30AF1200A08F1200824
:1043C0006FF0404504E0FFE70DB90420FFE66D1EE5
:1043D0005D480830006840F21A3108400028B5D026
:1043E0000820FEF777FC20B10820FEF749FC0420E6
:1043F000EDE60220FEF76EFC20B10220FEF740FC45
:104400000220E4E61020FEF765FC20B11020FEF744
:1044100037FC0520DBE64FF40070FEF75BFC30B1A3
:104420004FF40070FEF72CFC0720D0E62CE04FF490
:104430008070FEF74FFC00B34548007838B144481F
:104440000078012803D042480078022815D10020C6
:10445000404908600C204860402088600020C86007
:104460004FF4806008610846FEF780FC0C20FDF7E1
:104470004BFE06460EB13046A9E6FBF7F7FE40F2CA
:10448000FF50FEF7FDFB46E034480078012842D19A
:104490000020334908700120324908700020324959
:1044A000087029481030006840F21A310843264944
:1044B0001031086007FB04F140220498FEF772FCFB
:1044C0002148006840F008001F4908604FF0FF35A0
:1044D00000E06D1E2548006800F0006008B9002D5E
:1044E000F7D11DB9FEF75CFE042070E64FF0FF35F2
:1044F00000E06D1E1C48007820B91948007808B902
:10450000002DF6D10DB9042061E61548007810B1F0
:10451000134800785BE640F2FF50FEF7B1FB02A8BB
:10452000FEF7ECF9064603E002A8FEF7E7F90646B7
:104530003EB99DF808000728F6D09DF80800062827
:10454000F2D0304643E600002C2C014074000020DD
:1045500008000020600000200C0000201000002057
:10456000120000201100002013000020006402400F
:104570000CB50020019000903448006840F4803071
:104580003249086000BF3148006800F400300090F4
:104590000198401C0190009818B90198B0F5A04FFF
:1045A000F1D12A48006800F4003010B101200090D9
:1045B00001E0002000900098012846D123484030B7
:1045C000006840F080502149403108602048006870
:1045D00040F440401E4908601C48083000681B49F0
:1045E000083108600846006840F40040086008464A
:1045F000006840F4A05008601648091F0860081FB2
:10460000006840F08070091F086000BF0F48006814
:1046100000F000700028F9D040F205700E490860E3
:104620000A480830006820F0030008490831086093
:104630000846006840F00200086000BF03480830E8
:10464000006800F00C000828F8D10CBD00380240CA
:104650000070004008544007003C024010B5154867
:10466000006840F47000134908601348006840F087
:1046700001001149086000200F49083108600E4808
:1046800000680E4908400C4908600D48091D086083
:10469000081F006820F48020091F086000200649D8
:1046A0000C310860FFF764FF4FF00060014980396A
:1046B000086010BD88ED00E000380240FFFFF6FE04
:1046C0001030002410B5084800F0BAF8C4B200BF9A
:1046D0008021064800F018F80028F9D02146034848
:1046E00000F0B3F810BD0000004800400010014089
:1046F00021B1828942F40052828104E082894DF620
:10470000FF731A408281704702460020B1F5007F96
:1047100000D100BF13880B400BB1012000E0002046
:104720007047F0B50346002400260025002040F61F
:104730006A17B94200D100BF1846C1F3421401F014
:104740001F06012707FA06F5012C01D10C3004E001
:10475000022C01D1103000E014301AB107682F4349
:10476000076002E00768AF430760F0BD2DE9FF472F
:1047700005460E460024A14600BFA046B08900B100
:1047800000BF2C8A24F44054F08804432C82AC8966
:1047900041F20C608443B088318908437189084331
:1047A0000443AC81AC8A24F44074B0890443AC82E5
:1047B0006846FEF79BF92048854202D01F48854293
:1047C00002D1DDF80C9001E0DDF80890A88900F432
:1047D000004040B109EBC90000EB09103168490005
:1047E000B0FBF1F707E009EBC90000EB09103168F5
:1047F0008900B0FBF1F76420B7FBF0F00401200959
:10480000642101FB1078A88900F4004040B13220F7
:1048100000EBC800B0FBF1F000F00700044308E033
:10482000322000EB08106421B0FBF1F000F00F0023
:1048300004432C81BDE8FF870010014000140140B3
:1048400001468888C0F308007047C1F308028280DF
:10485000704700000000000030B52DED048B81B0E2
:10486000B0EE408AF0EE608A6A4651EC180B01F017
:10487000D3FB00989FED329B7E300090002821DC16
:1048800053EC192B51EC180B02F0AAFF1AD000219F
:1048900040F608004FF00000044651EC180B02F0FF
:1048A00059FF08EE100A40F6080004EA00014FF034
:1048B0000000B5EEC08AF1EE10FA04BF0220FCF74A
:1048C000A8FD2DE00098FF2830DB002108464FF0BE
:1048D000000000F4400553EC192B51EC180B03F0C9
:1048E00025F98CBF002401240220FCF792FD9FEDE6
:1048F000168A4DB1002C0CBF4FF400004FF480001D
:10490000A84218BF9FED118A042108464FF000000D
:10491000002C01BFB1EE480A01B0BDEC048B30BDE4
:10492000B0EE480A01B0BDEC048B30BD51EC180B61
:1049300002F010FF01B000EE100ABDEC048B30BD98
:1049400000000000000000000000807FFFFF7F7F6C
:1049500030B540F2FF742DED048BF0EE608A18EE56
:10496000901A85B0B0EE408A9FED2B9B05468DEDE9
:10497000008B34EA115147D053EC192B51EC180B32
:1049800002F02EFF40D02A4651EC180B03F043F9F9
:1049900041EC180B18EE900A8DED008B34EA1050A4
:1049A0001CD053EC192B51EC180B02F019FF2BD132
:1049B0000220FCF72EFD00F057F810EE901A18EECA
:1049C000900A8DED020B8DED008B61F31E000390BC
:1049D0009DED020B05B0BDEC048B30BD0220FCF751
:1049E00018FD00F031F810EE901A18EE900A8DEDD7
:1049F000020B8DED008B61F31E0003909DED020B09
:104A000005B0BDEC048B30BD05B0B0EE480AF0EE49
:104A1000680ABDEC048B30BD0000000000000000FF
:104A200000B583B09FED060B0A4601468DED000BE5
:104A30006846FCF7E7FB9DED000B03B000BD0000EE
:104A400000000000000000009FED050B10B553ECC6
:104A5000102B51EC100B02F06BFF41EC100B10BD52
:104A600000000000000000709FED050B10B553EC36
:104A7000102B51EC100B02F05BFF41EC100B10BD42
:104A8000000000000000001010B5044691ED000B7E
:104A9000FFF7E2FE84ED000A10BD10B5044690ED6C
:104AA000000B0846FFF754FF84ED000B10BD3038B3
:104AB0000A2801D2012070470020704700BFFEE79E
:104AC00000BF0549098801F080010029F9D0024A98
:104AD000121D10807047000000480040014609B1D7
:104AE000086808B90020704702E08868401C8860A8
:104AF00041B1D1E90120904204D28A680868805C03
:104B00002028F2DDD1E90120904202D18868401EC0
:104B100088600846E7E7000070B50446002522E0FB
:104B20002568A08900F4807020B9A06810B1A06841
:104B3000FFF7F2FFA08900F4807028B9206918B14E
:104B40000A4A206951688847A08900F4007028B992
:104B5000206A18B1054A206A5168884703484168AD
:104B6000204688472C46002CDAD170BD200000205A
:104B700070B504460D4600222946204601F02DFB63
:104B800070BD70B5044628202168884705461DB1D0
:104B900028212846FBF7A1FE284670BD10B5044623
:104BA00000221146204600F001F810BD2DE9F04327
:104BB00089B004460D4617461C2102A8FBF78DFE5E
:104BC000002600202C490860486004B934E00294B3
:104BD0002046FBF7A1FD401C039000200490274ACB
:104BE00007CA06AB07C32548FFF7CBFF064606B941
:104BF00022E002A802F0FCFA8146FFF76FFF804630
:104C00004146304602F01EF800B915E05FB102A837
:104C1000FFF764FFDDE90310884203D2049902988C
:104C2000405C00B108E01DB1049902980844286076
:104C3000304609B0BDE8F08316B13046FFF76CFF8F
:104C4000C4B1009400200190DDE90310884202D233
:104C50000498019004E0039810B10398401E01905D
:104C60001DB1DDE90001084428600348DDE90012B8
:104C700006C000BF0020DCE7180000202000002054
:104C800070B504460D4604B10DB9012070BDAC42AB
:104C900001D10020FAE705E0207808B90020F5E707
:104CA000641C6D1C2078FBF7DAFB06462878FBF7BE
:104CB000D6FB8642F0D02078FBF7D1FB0646287859
:104CC000FBF7CDFB301AE1E770B504460D46002036
:104CD000E070401EE0622946204601F0E3FC08B186
:104CE000042070BD04F22E2001F0F1FA4AF655219D
:104CF000884201D00320F4E794F83000E92807D077
:104D000094F83000EB2803D094F83000E82811D153
:104D1000032209A104F1660001F09CFC08B90020FF
:104D2000DFE7052205A104F1820001F093FC08B938
:104D30000020D6E70220D4E74641540046415433D0
:104D400032000000024600E0521C107810B11078CA
:104D50008842F9D1107870470246891E5069801E3A
:104D6000884201D8002070475389906A03FB0100F4
:104D7000F9E70146002002E04910421CD0B20129A7
:104D8000FAD170472DE9F04782468846DAF80040AC
:104D9000B8F1000F06D1E76817B16069B84215D8BD
:104DA000012713E04146504601F07EF90546022DE9
:104DB00002D20120BDE8F087681C08B92846F9E74F
:104DC0006069A84201D92846F4E74746206908B936
:104DD0000020EFE70026474518D17E1C6069B042ED
:104DE00000D802263146504601F05EF90546012DF5
:104DF00001D0681C08B92846DCE73DB1E568022D02
:104E000003D36069A84200D92F460026E6B93E4682
:104E100000BF761C6069B04204D80226BE4201D9A8
:104E20000020C7E73146504601F03EF9054605B976
:104E300009E0012D01D0681C08B92846BAE7BE4236
:104E4000E7D10020B6E700BF4FF0FF3231462046E1
:104E500001F096FF8146B9F1000F08D1B8F1000FBB
:104E600005D032464146204601F08AFF8146B9F11D
:104E7000000F0DD1E660D4E90410801E814202D8F3
:104E80002069401E2061207940F00100207107E078
:104E9000B9F1010F02D14FF0FF3000E001200646CA
:104EA000304687E72DE9F35F8946D9F800800098FE
:104EB00000F120050B222021284601F0EAFB00200A
:104EC000074606464FF0080B00BF3046761C18F820
:104ED0000040202C00DC4AE02F2C01D05C2C0AD1B1
:104EE00000E0761C18F806002F28FAD018F8060003
:104EF0005C28F6D03BE02E2C01D05F450BD3BBF1F4
:104F00000B0F01D02E2C02D00620BDE8FC9F0827F5
:104F10004FF00B0BD9E7204600F046F8A8B1304619
:104F2000761C18F800A0504600F058F818B1ABF104
:104F30000100B84201D80620E7E738467F1C2C5410
:104F400038467F1C05F800A010E0214612A0FFF7AC
:104F5000F9FE08B10620D8E7612C04DB7A2C02DCCC
:104F6000A4F12000C4B238467F1C2C54ADE700BF2A
:104F700008EB0600C9F800000FB90620C5E728783D
:104F8000E52801D105202870202C01DC042000E058
:104F90000020E8720020B8E7222A2B2C3A3B3C3D47
:104FA0003E3F5B5D7C7F000001460B4800788842F5
:104FB0000FDC09484078884201DB01207047064831
:104FC0008078884205DC0448C078884201DB0120F3
:104FD000F4E70020F2E70000AE7C0008014610482C
:104FE0000079884219DC0E484079884201DB0120B3
:104FF00070470B488079884205DC0948C0798842AF
:1050000001DB0120F4E70648007A884205DC044809
:10501000407A884201DB0120EAE70020E8E700004F
:10502000AE7C000810B588B0044601210820FDF7C9
:105030001DFD4FF44070069002208DF81C000020EA
:105040008DF81E008DF81F008DF81D0006A91E4862
:10505000FDF7E0FB072208211B48FDF723FC072290
:1050600009211948FDF71EFC01218804FDF70EFDFA
:1050700002940020ADF80C00ADF80E00ADF8100061
:105080000C20ADF812000020ADF8140002A90F4862
:10509000FFF76CFB012240F225510C48FFF741FB62
:1050A00027208DF8040002208DF805008DF80600F9
:1050B00001208DF8070001A8FDF79CFC01210348A1
:1050C000FFF716FB08B010BD000C0240004800407E
:1050D0002A214843002100E0491C8142FCD370474B
:1050E0002DE9F04104460E46D4F800800021204608
:1050F00000F057F90546EDB9002700BF4046A16909
:1051000001F0D0FA054605B113E0E0690078E52822
:1051100002D0E069007820B9781C0746B04201D17E
:1051200007E000270121204600F070F80546002D19
:10513000E4D000BF042D00D107252846BDE8F0814A
:105140002DE9F04704468946204602F0DBF810B10D
:105150000120BDE8F08749462046FFF7FDFD0646E1
:10516000E6624FF40072002104F1300001F091FA80
:1051700004F130080127002500E03D446089A84281
:1051800007D9721960783B46414600F0B1F9002812
:10519000F3D06089A84201D00120DAE70020D8E7E7
:1051A0002DE9F041044627680021204600F0F9F877
:1051B000054615B12846BDE8F08100BF3846A16913
:1051C00001F070FA054605B11DE0E06906780EB9F8
:1051D000042518E0E069C07A00F03F00A071E069A2
:1051E000C07A00F0080038B90B2204F12001E06910
:1051F00001F030FA00B906E00021204600F006F880
:105200000546002DDAD000BF2846D4E72DE9F0414D
:10521000044688462768206900F12006A06910B17D
:10522000B6F5001F02D30420BDE8F081C6F30800E4
:10523000002845D1A069401CA061606938B938894F
:10524000B0EB561F3CD80020A0610420ECE7788921
:10525000401E00EA562098BB2046616900F024FFFA
:105260000546012D01D80220DEE7681C08B901209F
:10527000DAE77869A8421DD8B8F1000F03D1002001
:10528000A0610420D0E720466169FFF77BFD054659
:105290000DB90720C8E7012D01D10220C4E7681C21
:1052A00008B90120C0E729463846FFF749FF08B191
:1052B0000120B9E7656129463846FFF74DFDA06139
:1052C0002661C6F3080107F130000844E0610020C0
:1052D000AAE72DE9F047044688460425D4F8009053
:1052E00027E04846A16901F0DDF9054605B123E054
:1052F000E06906780EB904251EE0E069C07A00F086
:105300003F07A771E52E0DD02E2E0BD00F2F09D001
:1053100027F02000082801D1012000E000204045AE
:1053200000D109E000212046FFF770FF054605B1D6
:1053300002E0A0690028D4D100BF0DB10020A06117
:105340002846BDE8F08770B504462668012120464E
:10535000FFF7C6FE054695B93046A16901F0A2F9EE
:10536000054665B920220021E06901F092F90B227F
:1053700004F12001E06901F07FF90120F070284676
:1053800070BD70B5044626683046A16901F08AF9FF
:10539000054625B9E520E16908700120F07028462E
:1053A00070BD2DE9F04104460D462668B5F5001F95
:1053B00002D205F01F0010B10220BDE8F081256186
:1053C000A7681FB93078032800DB776A47B93089AE
:1053D000B0EB551F01D80220EFE7706AA0611CE016
:1053E00070894FEA402811E03946204600F05CFE03
:1053F0000746781C08B90120DFE7022F02D3706945
:10540000B84201D80220D8E7A5EB08054545EBD204
:1054100039463046FFF7A0FCA0616761A06908B972
:105420000220CAE7A06900EB5520A061C5F308017E
:1054300006F130000844E0610020BEE770B5054683
:1054400025B9FDF7ADFE0446204670BD0120FCE7FE
:105450002DE9F04706468946154646BBB9F1000FCF
:1054600009D0B9F1010F13D0B9F1020F05D0B9F18C
:10547000030F19D106E0002418E04FF400702860F3
:10548000002413E00C48B0F85000288000240DE000
:1054900009484FF400720023D0E912713846FAF738
:1054A000BAFF2860002401E0042400BF00E00124CA
:1054B0002046BDE8F0870000B00000202DE9F04153
:1054C00005460E46174698464DB908F0FF02394684
:1054D0003046FEF763FA04462046BDE8F08104201A
:1054E000FBE7024612B90021084670470120FCE79D
:1054F0002DE9F04106460F4690461D468EB9EAB2A8
:1055000041463846FEF7FCFD044605E0EAB2414656
:105510003846FEF7F5FD0446002CF7D1E0B2BDE8B1
:10552000F0810420FBE738B50546284600F0F6F97F
:1055300004463CB96946284602F0C2F804460CB954
:1055400000202860204638BDF7B582B01646039883
:10555000019001A800F01AFE0546002D02DA0B208A
:1055600005B0F0BD0C4850F825400CB1002020706B
:10557000029810B10020029908700749029841F87A
:1055800025000EB90020EBE7002202A903A800F0D5
:105590005DFB07463846E3E73C0000202DE9F74F66
:1055A0008EB0044616461CB9092011B0BDE8F08F34
:1055B00006F03F06324602A90FA800F047FB054659
:1055C000002D7DD10298039003A80F9900F0C4FC30
:1055D00005462DB99DF8370000F0800000B1062582
:1055E00006F01C00002850D045B1042D03D103A8BB
:1055F000FFF7A9FE054646F008060AE09DF81200EE
:1056000000F0110008B1072503E006F0040000B126
:105610000825002D4AD106F00800002846D00A9936
:10562000029800F035FE814600F0AEFD00900A9928
:1056300001F10E00009901F00BFE20200A99C872BA
:1056400000220A99029801F0F1FD0A9901F11C006B
:10565000002101F0FDFD01200299C870B9F1000F91
:1056600024D00298C06A01900022494603A801F0A4
:1056700023FC0546D5B9DDE9011001F013F8054614
:10568000A9F101000299C86010E07DB99DF81200EF
:1056900000F0100008B1042508E006F0020028B16F
:1056A0009DF8120000F0010000B107255DB906F079
:1056B000080008B146F040060298C06A206200E087
:1056C0004BE00A986062002D55D10A99029800F0CB
:1056D000DFFDA0600A9901F11C0000F0ECFDE06024
:1056E000029820600298C088A08026740020607410
:1056F000E06160614FF40072002104F1280000F0C5
:10570000C8FF06F0200040B3E06830B3E068606195
:10571000029840894FEA402AA768D4F80C800CE030
:105720003946204600F0C0FC0746012F00D802256C
:10573000781C00B90125A8EB0A080DB9D045EFD8AF
:10574000A76155B9C8F3080038B139460298FFF788
:1057500003FBB0F1000B01D102250CE00BEB58204C
:10576000E061E26902994878012304F12801FFF71A
:10577000A5FE00B101250DB100202060284614E7E8
:105780002DE9FF4F85B0044615469A46DDF818B05E
:105790000020CAF8000003A9204601F091FF049000
:1057A000049810B9607C049018B1049809B0BDE861
:1057B000F08F207C00F0010008B90720F6E761694E
:1057C000E068401A01900198854200D9019DA0E04F
:1057D000A08AC0F3080000287ED103984089401EAB
:1057E000616900EA5129B9F1000F17D1606910B958
:1057F000A068029004E02046A16900F055FC0290E8
:105800000298022802D202206074CFE70298401C5E
:1058100010B901206074C9E70298A061A1690398DA
:10582000FFF79AFA064616B902206074BEE74E44A6
:105830004FEA5528B8F1000F29D009EB0800039969
:105840004989884203D903984089A0EB0908039944
:105850004878434632465946FFF730FE10B10120E2
:105860006074A3E7207C00F0800068B1E069801BD1
:10587000404509D2E169891B0BEB41204FF40072CE
:1058800004F1280100F0F8FE4FEA482737E0E0690C
:10589000B04220D0207C00F0800078B1E26903990A
:1058A0004878012304F12801FFF722FE10B10120FE
:1058B00060747BE7207C00F07F00207403994878B7
:1058C0000123324604F12801FFF7F8FD18B1012049
:1058D00060746BE700E0E661A08AC0F30800C0F5E1
:1058E0000077AF4200D92F46A08AC0F3080204F126
:1058F000280011183A46584600F0BEFE00BFED1BC6
:10590000DAF800003844CAF80000BB446069384443
:105910006061002D7FF45CAF002047E7F8B50446D6
:105920006946204601F0CCFE0646002E44D1207C7C
:1059300000F0400000283FD0207C00F0800070B1D3
:10594000E26900994878012304F12801FFF7D0FDAE
:1059500008B10120F8BD207C00F07F00207400F029
:1059600013FC0746216A009800F09CFE06461EBB09
:10597000656AE87A40F02000E8722946A26820684B
:1059800001F054FC05F11C00E16801F061FC3946AE
:1059900005F1160001F05CFC002105F1120001F098
:1059A00063FC01200099C870009801F063FC064672
:1059B000207C00F0BF0020743046CBE731B598B0B2
:1059C0000025022201A918A800F040F90446002C85
:1059D00046D101980D900DA8189900F0BDFA044623
:1059E00000BF002C3CD19DF85F0000F0800008B1A2
:1059F000062405E09DF83A0000F0010000B10724FC
:105A0000E4B91499019800F043FC05469DF83A006A
:105A100000F0100090B1019802900495002102A8B6
:105A2000FFF7BFFC04464CB9002102A8FFF751FC68
:105A3000044604B90724042C00D1002484B90DA81D
:105A4000FFF79FFC044634B92DB1002229460DA86A
:105A500001F032FA04461CB9019801F00BFC04462F
:105A6000204619B030BD2DE9FF4F83B004461546DE
:105A70009B46049800900020CBF8000001A9204626
:105A800001F01EFE0290029810B9607C029018B1DD
:105A9000029807B0BDE8F08F207C00F0020008B942
:105AA0000720F6E700BF606928446169884202D296
:105AB0006069C0F1FF35BBE0A08AC0F30800002890
:105AC00075D101984089401E616900EA512ABAF1F6
:105AD000000F1ED1606938B9A76857B90021204668
