:020000040800F2
:108000000000011071830008798300087B83000859
:108010007D8300087F830008818300080000000042
:10802000000000000000000000000000B182000815
:1080300085830008000000000D8300085DD900085A
:108040008B8300088B8300088B83000825BD000804
:108050008B8300088B830008CDB200088B83000857
:108060008B8300088B8300088B8300088B830008B8
:108070008B8300088B8300088B8300088B830008A8
:108080008B8300088B8300088B8300088B83000898
:108090008B8300088B8300088B83000831B30008B2
:1080A0008B8300088B8300088B8300088B83000878
:1080B0008B8300088B8300088B8300088B83000868
:1080C0008B8300088B8300088B8300088B83000858
:1080D0008B830008B1DA000839DC0008B1DC000845
:1080E0008B830008E1BC00088B8300088B830008A9
:1080F0008B8300088B8300088B8300088B83000828
:108100008B83000861BF00088B8300088B83000805
:10811000F9D900088B8300088B8300088B83000843
:108120008B8300088B8300088B8300088B830008F7
:108130008B8300088B8300088B8300088B830008E7
:108140008B8300088B8300088B8300088B830008D7
:108150008B8300088B8300088B83000885DE000872
:108160008B8300088B8300088B8300088B830008B7
:108170008B8300088B8300088B8300088B830008A7
:108180008B8300088B83000800F002F800F07CF875
:108190000AA090E8000C82448344AAF10107DA4562
:1081A00001D100F071F8AFF2090EBAE80F0013F038
:1081B000010F18BFFB1A43F001031847C402040063
:1081C000F40204000A444FF0000C10F8013B13F0D5
:1081D000070408BF10F8014B1D1108BF10F8015B20
:1081E000641E05D010F8016B641E01F8016BF9D113
:1081F00013F0080F1EBF10F8014BAD1C0C1B09D16A
:108200006D1E58BF01F801CBFAD505E014F8016BDB
:1082100001F8016B6D1EF9D59142D6D3704700006D
:108220000023002400250026103A28BF78C1FBD87F
:10823000520728BF30C148BF0B607047672914F050
:10824000D184642900F00A82782900F043827329DE
:1082500001F07380002070471FB514F0B6FC9DE854
:10826000030000F01BFD01F0E1FB040000200021F1
:1082700013F0F4FD401C60600020002113F004FEA8
:10828000E0601FBD10B510BD01F01DFF1146FFF7E6
:10829000E3FF0BF013F802F073F903B4FFF7F2FFFA
:1082A00003BC06F07FFF000072B6704762B67047ED
:1082B0002C4B19680868B0E8F04F80F30988BFF3C9
:1082C0006F8F4FF0000080F31188704700000000AE
:1082D00008480068006880F308884FF0000080F3C9
:1082E000148862B661B6BFF34F8FBFF36F8F00DFA4
:1082F00000BF00BF08ED00E0DFF80C00016841F4AA
:1083000070010160704700BF88ED00E0EFF3098065
:10831000BFF36F8F134B1A681EF0100F08BF20EDCC
:10832000108A20E9F04F106009B44FF0500080F33C
:108330001188BFF34F8FBFF36F8F11F01BFF4FF00A
:10834000000080F3118809BC19680868B0E8F04F94
:108350001EF0100F08BFB0EC108A80F30988BFF33D
:108360006F8F7047DC000020EFF30580704700003E
:108370000948804709480047FEE7FEE7FEE7FEE7B9
:10838000FEE7FEE7FEE7FEE7FEE7FEE704480549F5
:10839000054A064B7047000091D900088981000802
:1083A000000000100000011000A0001000A000104C
:1083B000704770B5064600F051FC056806F10B00E9
:1083C00020F00704B4429CBF002070BD2B466A68B1
:1083D000BAB11068A04210D304F1080188423CBF32
:1083E0005068586007D35168101941601168091B23
:1083F000016058601460101D70BD13465268002A59
:10840000E7D12146284600F035FC0028DED170BDBA
:1084100070B50446051F00F021FC0068002C14BF55
:10842000446870BD002C18BFAC423CBF2046646855
:10843000F8D301680A18AA4218BF456003D12A6818
:1084400005461144016028684119A1421CBF6C60B7
:1084500070BD6168696021680844286070BD70B5AE
:108460000D460646041F00F0F9FBD0F800C0C5B168
:10847000E6B105F10B0020F00703AB423CBF002042
:1084800070BD2068984238BFDCF8042013D3C11AAD
:1084900008292FD3E01840F8041B2360FFF7B8FF2A
:1084A00028E03046FFF7B4FF002070BD2846BDE845
:1084B0007040FFF77EBF002A18BFA2423CBF94461F
:1084C0005268F8D30119914216D1116808449842B4
:1084D00012D3C11A08293CBF2060506808D35168E4
:1084E000E0184160216812681144C91A01602360D4
:1084F000CCF80400201D70BD181FFFF75AFF0500BF
:1085000007D021680A1F211D00F0D9FA201DFFF7AE
:108510007FFF284670BD10B54C1084EA530404D583
:108520004042C1F1000138BF491E1B4204D55242EE
:10853000C3F1000338BF5B1E00F0E6FB14F0804F70
:1085400004D04042C1F1000138BF491E14F0004F71
:1085500004D05242C3F1000338BF5B1E10BD10B5FA
:10856000044600F073FB0068005DC00602D504F10C
:10857000200010BD204610BD0FB4044910B503AA59
:10858000029800F0DFFE10BC5DF814FB7C000020B8
:108590000FB41CB5084B06AA7B44694600900598A9
:1085A00000F0A1FE04460020694600F0AFFE204620
:1085B0001CBC5DF814FB0000710D000070B5044692
:1085C00085690068C10601D5302600E02026C00775
:1085D00007D070BDD4E9012130469047206A401C85
:1085E00020626D1EF6D570BD70B5044685690078B1
:1085F000C00707D170BDD4E9012120209047206A2F
:10860000401C20626D1EF6D570BD70B50C46054647
:10861000012A05D02878800600D5EA69002302E007
:10862000012305E05B1C934202D2E05C0028F9D1F3
:10863000A869E618C01AA861286A18442862284662
:10864000FFF7BCFF04E0D5E9012114F8010B9047C6
:10865000B442F8D32846FFF7C7FF70BD2DE9F041BB
:108660000646002410687529314616A510D0AFF3D0
:108670000080002802DA404213A507E031688A072B
:1086800001D512A502E0490704D511A5012401E096
:10869000AFF3008000210A2206F1240709E0B0FBB5
:1086A000F2FCB0FBF2F302FB1C00303078541846A9
:1086B000491C0028F3D123462A463046BDE8F04144
:1086C00000F0A4BB000000002D0000002B00000003
:1086D0002000000070B504460D4621461068AFF337
:1086E00000802188090502D50F4A7A4402E00E4A2B
:1086F0007A440E32002104F1240305E000F00F0655
:108700000009965D5E54491C0028F7D120780023AB
:10871000000704D5702D02D009B102231132204682
:10872000BDE8704000F072BB88F803002DE9F05FEF
:10873000894604464FF0000ADFF824B1FB44C0F834
:1087400020A02046E168884700287DD0252806D053
:10875000D4E901219047206A401C2062F1E70025FE
:108760005F462046E16888472028064607DB312E11
:1087700005D2B81910F8200C08B10543F1E7A80795
:1087800001D525F00405C4F81CA00027C4F818A0E2
:108790002A2E09D0304606F0FEFC38B304EB8708D9
:1087A000303EC8F8186019E059F8041B204604EB65
:1087B00087029161E1688847012F064618D1E06978
:1087C000002820DA25F020051DE0D8F8180000EB7D
:1087D000800006EB40003038C8F818002046E168F9
:1087E0008847064606F0D7FC0028EED1012F0AD0B4
:1087F0002E2E08D12046E16888477F1C0646022FAE
:1088000045F02005C4DBA069002803DA404245F0AA
:108810000105A061E80701D025F01005A6B1A6F179
:108820004100192802D8203645F400654A463146F1
:10883000204625604D46FFF701FD60B1012807D0B5
:10884000ED1D25F0070000E007E000F1080978E7DA
:1088500005F1040975E730467AE7206ABDE8F09F24
:108860005EF803000FB400B58DB010A90990009117
:108870000B904FF0FF300A9000200C90064878448F
:108880000690064878446A4607900F9909A800F0B8
:10889000EDFF0DB05DF814FB0B100000231000007D
:1088A00070B5064600F0DEF90468054630460A2237
:1088B000002101F05DF82C6070BD0000014A01F05C
:1088C0008FB8000054010020401ECAB210F8011FEA
:1088D0008A4202D00029F9D10020704730B5054600
:1088E0000B462A4613F8014B12F8010B08B1A042BF
:1088F000F8D01CB1002802D06D1CF1E7284630BD2D
:1089000040EA0103024630B59B0710D14FF0013415
:1089100000E008C208C91D1B9D4315EAC41FF8D01A
:1089200013F0FF0102F8011B0DD01B0AF8E711F844
:10893000013B002B02F8013B05D011F8013B002B55
:1089400002F8013BF3D130BD10B5431C02E010F832
:10895000011B71B18107FAD14FF0013202C88C1AA4
:108960008C4314EAC211F9D0C01A0A0603D0C01E03
:1089700010BDC01A10BD0A0401D0801E10BD09022E
:10898000FCD0401E10BD40EA010370B59B072ED1FC
:108990004FF00136042A2AD308C810C99D1B9D43F5
:1089A000121F15EAC61517D0D8B2E1B2401A50EA24
:1089B000056110D198B2A1B2401A50EA05410AD11E
:1089C00023F07F4024F07F41401A50EA052102D174
:1089D000180EA0EB146070BDA342DBD018BA21BA08
:1089E000884201D9012070BD4FF0FF3070BD0AB937
:1089F000002070BD10F8013B11F8014B63B1A34298
:108A00000AD1521E08D010F8013B11F8014B1BB1DE
:108A1000A34201D1521EEDD1181B70BD421E12F8A7
:108A2000013F002BFBD111F8013B002B02F8013B69
:108A3000F9D17047032A40F2308010F0030C00F0A7
:108A4000158011F8013BBCF1020F624498BF11F888
:108A500001CB00F8013B38BF11F8013BA2F1040241
:108A600098BF00F801CB38BF00F8013B11F00303B9
:108A700000F02580083AC0F0088051F8043B083A1D
:108A800051F804CBA0E80810F5E7121D5CBF51F8BF
:108A9000043B40F8043BAFF30080D20724BF11F839
:108AA000013B11F801CB48BF11F8012B24BF00F89E
:108AB000013B00F801CB48BF00F8012B704710B50F
:108AC000203AC0F00B80B1E81850203AA0E81850C6
:108AD000B1E81850A0E81850BFF4F5AF5FEA027C87
:108AE00024BFB1E81850A0E8185044BF18C918C0F6
:108AF000BDE810405FEA827C24BF51F8043B40F897
:108B0000043B08BF7047D20728BF31F8023B48BF7B
:108B100011F8012B28BF20F8023B48BF00F8012BB9
:108B2000704702F0FF0343EA032242EA024200F0E8
:108B300002B84FF000020429C0F0128010F0030CBC
:108B400000F01B80CCF1040CBCF1020F18BF00F840
:108B5000012BA8BF20F8022BA1EB0C0100F00DB8EF
:108B60005FEAC17C24BF00F8012B00F8012B48BF4D
:108B700000F8012B70474FF0000200B513469446F1
:108B80009646203922BFA0E80C50A0E80C50B1F165
:108B90002001BFF4F7AF090728BFA0E80C5048BF79
:108BA0000CC05DF804EB890028BF40F8042B08BF17
:108BB000704748BF20F8022B11F0804F18BF00F813
:108BC000012B70474FF0013C50F8042B51F8043B47
:108BD0009A4221D1A2EB0C03934313EACC1317D191
:108BE00050F8042B51F8043B9A4215D1A2EB0C0328
:108BF000934313EACC130BD150F8042B51F8043BE8
:108C00009A4209D1A2EB0C03934313EACC13DBD0B5
:108C10004FF00000704700BFD01A01BAB1FA81F1DD
:108C200001F0180122FA01F0CB40C1F12001DBB2C2
:108C3000C0B2C01A2CFA01F3D11A914311EAC31140
:108C4000E6D17047704770477047000010B500F0DC
:108C5000EDFE001D10BD00BF053201000048704749
:108C6000984D012000487047904D01207047704793
:108C70007047704738B504460A4600206946AFF38E
:108C80000080002808BF38BD02460099204600F049
:108C9000D1FE012038BD012001F0F0B9F8B5AFF3E5
:108CA0000080054600200C46102000BF0646A8198B
:108CB000A0420DD9324669460020AFF3008007007C
:108CC00008BF01F0DBF90098A04218BF0546C4199F
:108CD000FFF7C4FF05600746F01D20F007004619A6
:108CE000284600F00AF8B44208BFF8BDA21B31467E
:108CF0003868BDE8F84000F09DBE00210160C0E981
:108D0000011070471020704753EA020C00F0698090
:108D10002DE9F04B4FF00006002B1FBFB3FA83F58F
:108D200003FA05F424FA05F65E4012BF1643B2FAC0
:108D300082F502FA05F4C5F120051EBF22FA05FCF2
:108D400044EA0C04203556EA044C4FEA144418BF98
:108D5000641C4FF000084FF00009904271EB030CC7
:108D600039D3002919BFB1FA81F701FA07F6B0FA31
:108D700080F700FA07F6C7F120071EBF20FA07FCAC
:108D800046EA0C062037B6FBF4FCA7EB0507103FBC
:108D900007F01F0BCBF120060CFA0BFB2CFA06F6A2
:108DA00044BFB3460026202FA4BF5E464FF0000B01
:108DB0005BEA060C08BF4FF0010B19EB0B09ABFB8C
:108DC000027C48EB0608C01B06FB02CC0BFB03CC65
:108DD00071EB0C01C1E70B46024641464846BDE82F
:108DE000F08B13B54FF000004FF00001AFF300809F
:108DF000BDE81C40704710B5FFF734FF006810BD98
:108E000010B50446FFF72EFF046010BD2DE9F047B2
:108E10000D4699469246044600F1240801688806EA
:108E200004D5E06921F01001216000E00120A84292
:108E300001DD471B00E00027A1697A1902EB090058
:108E4000081AA0612078C00602D42046FFF7B6FBBE
:108E5000002608E0D4E901211AF806009047206AAC
:108E6000401C761C20624E45F4DB2078C0060AD5F3
:108E70002046FFF7A3FB06E0D4E90121302090470C
:108E8000206A401C2062381EA7F10107F4DC07E0CD
:108E9000D4E9012118F805009047206A401C20629F
:108EA000281EA5F10105F3DC2046FFF79DFB207885
:108EB000000602D50220BDE8F0870120FBE77047DD
:108EC0002DE9FF4F0C461E464FF0FF378BB0D2E91D
:108ED0000001DDF860800A908A46C1F30A5505B9A1
:108EE0003D46002108464FF00000BAF1000F00F4A3
:108EF000400005DA00EB80004FF4400101EA500029
:108F00004FEA9059B9F1010F00DDB9460A9850EACD
:108F10004A000ED044F61050A5F2FF3545432F14F9
:108F2000B8F1000F1ED07542291E1EDDC9F10002E6
:108F30001CE0B8F1010F4FF0000001D0302103E038
:108F4000F24305E02154401CB042FBDB30460022D6
:108F5000002121540B99C1F80880C1E900200FB00D
:108F6000BDE8F08FBD1B6D1CDEE74A4600DA6942A2
:108F700006A801F011F806AB93E8070003AB83E8FD
:108F8000070050460A9901F05DFB8DE80700A0F547
:108F900000501F3800900398002D0ADD42F21F0197
:108FA0004A460844002303A90390684601F008FEDE
:108FB00009E0A0F500504A461F38002303A903909A
:108FC000684601F027FE8DE807000004000C03D07E
:108FD0004FF0FF30410800E01046B8F1000F03D019
:108FE0000022009215461EE0751E05D400F03CFDDF
:108FF000303262556D1EF9D5B3460122084302D0C6
:1090000000227F1C04E02078302801D100227F1E3E
:10901000002A099784D01DE0112D07DA00F024FD05
:10902000303262556D1C50EA0102F5D1084302D07E
:109030000098C8B10EE00021681E05E0235C625C68
:1090400063542254401E491C8142F7DBAB46A81BE7
:10905000401E0990002004F80B000B98099AC0F8F4
:109060000880C0E9002B7AE711264FF0000857E787
:109070002DE9F04F88460446D21D22F0070191B039
:10908000D1E90001CDE90A0105F068F802460B9824
:10909000C00F01D02D2007E02068810701D52B20CB
:1090A00002E0202101EAC000032A099001D0072A2A
:1090B00005DB03464146204600F024FD0BE1207805
:1090C000800601D5E06900E00620B8F1650F814611
:1090D00006D0B8F1660F18D0B8F1670F70D131E043
:1090E0000020B9F1110F009001DB112301E009F11B
:1090F00001030AAA01A90CA8FFF7E2FEDDE90C7042
:10910000002609F10105834647E001204B46009007
:109110004FF000470AAA01A90CA8FFF7D1FEDDE92C
:109120000DB00C995D46002610B909F101000D182B
:10913000B9EB050003D4C0F1FF3609F10105A5EB39
:1091400009002BE0B9F1010F01DA4FF0010900200D
:10915000B9F1110F0090484601DD112300E00346EC
:109160000AAA01A90CA8FFF7ABFEDDE90C704D4679
:1091700000268346207800070AD4AB4500DA5D4616
:1091800001A8012D04DD411911F8011C302907D077
:109190004F4502DA17F1040F04DA012082460FE08E
:1091A0006D1EEEE7002F02DCED1B3E4403E0781C51
:1091B000A84200DD7D1CB81B00F1010A4FF00047FA
:1091C0002078000703D4AA4501DB4FF0FF3A0021C5
:1091D000B7F1004F0DF143088DF8431024D0022061
:1091E0002B23002F01DA7F422D230A21021EA0F13A
:1091F000010000DC5FB197FBF1FC97FBF1F201FB92
:109200001C7C17460CF1300C08F801CDEEE7A8F1F4
:10921000010003702188090501D5452100E0652181
:10922000A0F1010800F8011C09980FA9A1EB08079B
:10923000FF1D00B10120411901EBEA70A16938441A
:10924000081A401EA0612078C00602D42046FFF70D
:10925000B5F9099828B1D4E901219047206A401C4A
:1092600020622078C00622D52046FFF7A7F91EE02D
:10927000002E04DBB34502DD01A8805D00E0302054
:10928000D4E901219047206A401C2062761CAAF193
:1092900001005FEA000A0AD100F0C8FBC06801685B
:1092A000405CD4E901219047206A401C2062281EBE
:1092B000A5F10105DCDC07E0D4E9012118F8010B78
:1092C0009047206A401C2062381EA7F10107F3DC9A
:1092D0002046FFF789F9032011B041E601694A1CD5
:1092E00002610878704700B58FB0CDE901310021E7
:1092F000059105497944CDE9031011466846FFF709
:1093000015FA0FB000BD0000E5FFFFFF0A6802F884
:10931000010B0A60704710B5436913B1AFF30080C9
:1093200001E0FFF772F9012010BD127800F124016D
:109330000A7000224A700122EDE711684FF0FF32F7
:10934000E9E70000074B70B50D467B44FFF7CBFF04
:109350000446284608F09BFE10B14FF0FF3070BD68
:10936000204670BD1B9A00002DE9FF4F06468BB0CA
:109370000878FF2806D0491C2D2805D000244FF07E
:10938000000908E000200CE00124F8E709EB89035C
:10939000491C00EB43090878FF28F7D114B1C9F143
:1093A00000008146107800252C46AA4629462D2823
:1093B00001D02B2804D1521C2D2813D00020824626
:1093C0008B461078FF280FD04FF0000C0A21521C5A
:1093D000A5FB017804FB018105FB0C11C5194BEBC2
:1093E0000104EEE70120EAE7002108464FF0000003
:1093F000BAF1000F02D000EB80004008C0F38157A3
:10940000012F01DD4FF0FF370E9955EA040009EBFB
:1094100001080BD04FF0020918F5FA7F16DA4FEA6F
:10942000CA70002F706008DD012007E04FEACA70A3
:10943000C6E900B00FB0BDE8F08F00203060FFF744
:1094400011FCC0F800901821084616E0B8F5FA7F24
:1094500018DD002F02DAF748784401E0F648784436
:10946000D0E90010C6E9001040EACA707060FFF74A
:10947000F9FBC0F80090142108460FB0BDE8F04F8A
:1094800013F0ADBB002108464FF00000B8F1000119
:10949000099002DAC7F1000200E03A4601DAC8F1A9
:1094A000000106A800F078FD06AB93E8070003ABC7
:1094B00083E8070044F23E005BEA0401009058464E
:1094C00004D144F21E012C465D460091210C090492
:1094D000014306D10099240444EA15442D041039AF
:1094E000009104F07F41014306D10099240244EA2F
:1094F00015642D020839009104F07041014306D132
:109500000099240144EA15742D01091F009104F00B
:109510004041014306D10099A40044EA9574AD008E
:10952000891E009104F00041084304D100986D1990
:109530006441401E00904FF001033A466846B8F17E
:10954000000FCDE9014503A902DD01F078FB01E040
:1095500001F04BFBBAF1000F04460D4601D084F038
:109560000044002108464FF00000099940F2FF77BF
:10957000484010F00C0F07D124F00040284303D0DE
:10958000C4F30A50B84212D1FFF76CFBC0F8009048
:10959000C4F30A50B8420AD1A8487844D0E9001070
:1095A000C6E9001004F000410843706042E7C6E9D4
:1095B00000543FE72DE9FF4F1F464FF0000A4FF0E0
:1095C000FF38454691B0D7E90146CDF83CA000F000
:1095D0002DFAC0680168405C1090B96912986D1C42
:1095E0008847396A814688470028F6D1B9F1FF3F9C
:1095F0000AD0002E24F4D06411DDB9F12B0F08D06D
:10960000B9F12D0F0BD102E0404615B013E744F439
:109610008064B96912986D1C8847761E8146600582
:1096200004A901D52D2000E02B20002E01F1010B13
:109630000DF130088DF810003FDDB9F1690F08D049
:10964000B9F1490F05D0B9F16E0F02D0B9F14E0F43
:109650001CD13B4601A8009580E85002DDE91212BA
:109660006FF0020013F024FBC11CCED10EE0B969EB
:1096700012986D1C884781461398761E44F4007436
:1096800005600F98401C002E0F9016DDB9F1300FC9
:10969000EDD0B9F1780F02D0B9F1580F0DD10F9874
:1096A00001280AD13B46CDE90054DDE91212001F22
:1096B000029613F0FBFAC11CA7D1109989453ED13F
:1096C00044F0800406E01399681CAAF1010A44F4EE
:1096D00000740860B9696D1C1298761E884730289E
:1096E0008146F0D02BE01099894505D1200603D49E
:1096F000761E44F0800418E0484605F04CFD08B39F
:10970000761E0DF123018B4544F4007408D2A9F1B3
:1097100030000BF8010B200607D5AAF1010003E089
:10972000200602D40AF101008246A00502D5139951
:10973000681C0860B96912986D1C88478146002E24
:10974000D1DC53E0002E51DDB9F1650F02D0B9F143
:10975000450F4BD1A00549D5B9696D1C1298761EED
:1097600024F440748847002E81460CDD2B2804D059
:10977000B9F12D0F07D144F48074B96912986D1CAA
:109780008847761E8146E00501D52D2100E02B217A
:1097900008F8011BCDF8008021E0761E0DF139019B
:1097A000884544F400740CD2A9F1300010F0FF0099
:1097B00088F8000002D10099884509D908F101080C
:1097C00006E0E00501D51E4801E042F20F70824636
:1097D000B96912986D1C8847814613980560002E60
:1097E00004DD484605F0D7FC0028D6D1F969129867
:1097F0008847FF2053468BF8000088F800000020BF
:109800000A900B9004AA0CA90AA8FFF7ADFDA005C9
:1098100002D46FF00100F8E614F0240F12D0E00734
:109820001CD13868DDE90A12031D3B600068C0E9FD
:10983000001213E05CF003004EF0030012EF03008F
:10984000F1D8FFFF0AA9684605F092FCE00705D1B0
:109850003868009A011D3960006802602846D4E625
:10986000026811441378016018467047D1600549B9
:109870007944516104497944116200211161114612
:1098800000F080B9EDFFFFFF79020000426842B1AD
:10989000016811F8013B23B1521EC0E900121846BD
:1098A00070470121C160881E704742685AB1C36881
:1098B000016843B983688B4205D0491E521CC0E938
:1098C0000012002070474FF0FF3070470FB40023A4
:1098D00000B589B00CA900910B99CB60214B7B445A
:1098E0000693214B7B44079304236FF00042CDE99C
:1098F00001321E4A7A446B4608920246002013F059
:10990000D3F909B05DF814FB70B506464FF0FF308F
:1099100015460C46324686B00091CDE901016946F4
:109920000020049004A8FFF7D1FF024604982118F4
:1099300025B108B1084600E02046286004980028B8
:109940000DD0002A02DD0098884208D03246081B5C
:1099500069460094CDE9010404A8FFF7B7FF06B0FB
:1099600070BD0000ABFFFFFFC3FFFFFFFB01000066
:109970002DE9F04791460F4680460446002614F82C
:10998000015B2DB1FFF762F90068405DC007F6D1B9
:109990002B2D02D02D2D18D0641E4A463946204664
:1099A00000F0AAFA27B13968A14201D1C7F80080B6
:1099B0004FF0020471050BD54042002803DDFFF78C
:1099C00051F90460A007BDE8F08746F48066E4E73B
:1099D0000028F8DAFFF746F904606FF00040F2E77C
:1099E0002DE9F04115460E46040002D12C6804B959
:1099F0000BA4204600F059FB0444207870B12746A0
:109A00003146384600F041FB0444207810B1002074
:109A100004F8010B38462C60BDE8F0810027F9E717
:109A20000000000000487047904D0120004870473A
:109A3000B04D0120034640688C46002818BF88427C
:109A40003CBF03464068F8D318681844884207D0E2
:109A50000CF1030020F00700001D411A521A0146C4
:109A6000081D0A60FEF7D4BC30B5B0F10A024FEA17
:109A7000900E71F100034EEA817EB0EB0E0061EBB7
:109A800091014FEA101E4EEA017E10EB0E0041EBF1
:109A900011114FEA102E4EEA016E10EB0E0041EB51
:109AA00011214FEA104E4EEA014E10EB0E0041EB31
:109AB0001141401841F100014FEAD00040EA4170E5
:109AC0004FEAD10110EB80054FEA810444EA90741B
:109AD00044EB01046D1944EB0404521BA3414FF005
:109AE000000348BF0A3200D530BD401C41F10001DF
:109AF00030BD10B50446FFF7A9F80068005D00F01E
:109B0000010010BD2DE9F0411F46044603260168FF
:109B1000072A01F4006004DB08B116A505E016A5CC
:109B200003E008B115A500E015A521F010002060A4
:109B3000A069C01EA0610FB1401EA0612046FEF7C3
:109B40003DFD4FB1D4E9012138469047206A401CC1
:109B50002062C01C206206E0206AFAE7D4E90121F5
:109B600015F8010B9047761EF8D22046FEF73CFD13
:109B7000BDE8F0814E414E006E616E00494E4600D8
:109B8000696E66002DE9F34F4FF0000A0C46564609
:109B90008DB001200C9001F10C000B9062690B98C4
:109BA00001219047051E2DD0252D2CD0216A8847F4
:109BB000C0B162690B9801219047216A884700284B
:109BC000F7D16269411E0B98904700E0761CA169AD
:109BD0000D988847216A88470028F7D1E1690D98D8
:109BE0008847DBE7A1690D988847A842074601D15D
:109BF000761CD3E7E1690D9888477F1C02D1BAF142
:109C0000000F6FD06BE162690B9800273D46394623
:109C100090472A2804D162690B98012190470125B9
:109C2000DFF8D08262690B9801219047A0F13001E2
:109C30000A290AD24745E5DC07EB870100EB41071B
:109C4000303FDFD445F01005ECE7E90601D46FF0B2
:109C500000476C280AD04C2814D0682815D06A28F0
:109C60000DD074281CD07A281AD01DE062690B9898
:109C7000012190476C2802D045F0040514E045F01E
:109C800002050DE045F020050AE062690B9801210C
:109C90009047682802D045F0080505E045F40065C6
:109CA00062690B9801219047C4E9015765283DD0AE
:109CB00019DC58287AD00CDC452837D004DC25285C
:109CC00026D041289ED131E046282FD0472899D16F
:109CD0002CE05B2877D0612828D063287CD06428CA
:109CE00023D15AE0F6E06F2848D008DC66281DD062
:109CF00067281BD0692821D06E2816D127E070284C
:109D000045D0732868D0752847D078280DD14DE00C
:109D1000A1690D988847252805463FF469AFE16998
:109D20000D9888476D1C3FF46AAFD8E00D99234623
:109D30006A466FF0010012F0B7FFC5E045F0400041
:109D400023464FF000026060A80736D43EE0E807E3
:109D50007FF447AF2068011D21600068290501D507
:109D600006701BE7290701D5068017E7A90703D569
:109D7000F117C0E9006111E706600FE745F0400008
:109D800023464FF008026060A80716D41EE040F694
:109D90000E0125EA0100606016E045F04000234610
:109DA0004FF00A026060A80707D40FE045F04000BA
:109DB0006060A80708D5234610220D996FF00100B6
:109DC000AFF3008080E007E0102223460D996FF08A
:109DD0000100AFF3008077E04FF0000963284F46A1
:109DE000C8464B46CB4602D05B2806D038E0E80692
:109DF00001D40120A060012732E06269D4F80CB0E0
:109E00000B98012190475E2807D14FF00109494680
:109E10006269D4F80CB00B989047216939B90021D8
:109E20000A4603AB43F82120491C0829FADBD8B3C2
:109E3000216949B308F1010862690B980121904733
:109E40005D28F4D1B9F1000F09D0002003A951F821
:109E50002020D24341F82020401C0828F7DB03AB28
:109E60002069002820794FEA40701ED05B462246C8
:109E7000CDF80080CDE901970D9900286FF0010021
:109E800020DAAFF300801FE0C11703AA00EBD16115
:109E90004B1121F01F0102EB8302411A13680120CC
:109EA000884003431360C7E719E00D992246002854
:109EB0006FF00100009702DAAFF3008004E0AFF327
:109EC000008001E0AFF3008000280ADA401C06D1D0
:109ED0000C9820B14FF0FF300FB0BDE8F08F504626
:109EE000FAE7E90701D10AF1010A064400200C90C3
:109EF00054E60000CCCCCC0C2DE9F05F8246154630
:109F00008B4600270AF10104B9460078302801D0B9
:109F10009DB113E014F8010B0127782803D05828CD
:109F200001D045B10AE00DB1102D07D1002714F87A
:109F3000010B102502E0082500E00A250026B046A6
:109F40000EE005FB080005FB06F101271FFA80F86B
:109F500001EB1046B6F5803F00D3B94614F8010B6B
:109F6000294600F0D5F80028EBDABBF1000F05D048
:109F70000FB1641E00E05446CBF80040B9F1000F69
:109F800006D0FEF76FFE02210160C81EBDE8F09FFB
:109F900048EA0640FAE700002DE9F04781461646F8
:109FA0008AB0354878440DC88DE80D0032487844B1
:109FB000801C03AC0DC884E80D0041F69B300844BA
:109FC000372190FBF1F290FBF1F5A5F1800501FB43
:109FD00012041B3C02D56442012000E00020DFF89F
:109FE00098A080460027FA44AAF1BE0A0EE0E007D6
:109FF0000AD03246684607EB470101230AEB81018C
:10A0000000F008FE8DE8070064107F1C002CEED1E4
:10A01000194F7F44AE3F19E0E80715D007EB041055
:10A020000DF1180A90E80E008AE80E00C068F042B0
:10A0300001D1981908903246012306A903A800F01F
:10A04000E9FD03AB83E807006D10641C002DE3D12C
:10A050004FF0010332466946B8F1000F03A802D061
:10A0600000F0AEFD01E000F0D5FDC9E90001C9F83E
:10A0700008200AB0BDE8F08714E1030010B500F035
:10A080008DFABDE8104000F084BA30B503461D7863
:10A090001DB10A4603E0AC4201D1181A30BD12F8D6
:10A0A000014B002CF7D15B1CF1E730B503461D785E
:10A0B0003DB10A4612F8014B1CB1AC42FAD15B1C0F
:10A0C000F5E7181A30BD7546FFF7ACFCAE46050043
:10A0D0006946534620F00700854618B020B5FEF7C4
:10A0E00055F9BDE820404FF000064FF000074FF053
:10A0F00000084FF0000B21F00701AC46ACE8C009A6
:10A10000ACE8C009ACE8C009ACE8C0098D467047AE
:10A110003A2800D2303820F02002412A01D3A2F19F
:10A120003700884201D34FF0FF3070472DE9FF4FD1
:10A130001F464FF03C0987B04FF00042DDE9141094
:10A1400001F10108DDF858A002EA40500390002018
:10A1500005908346054604460490B969461E089852
:10A160008847AAF1010A0290BAF1000F3BDD02987C
:10A170002E2815D01021FFF7CBFF00282EDB4FF043
:10A18000010B0599014317D0B9F1000F0BDB4A46CB
:10A19000C11700F02BFA05430C43A9F1040905E0AF
:10A1A000012004900BE008B145F001050120059065
:10A1B000049820B9361D02E0049800B1361FB96931
:10A1C000089808F101088847BBF1000FAAF1010ABD
:10A1D0000290C9D00999C1F80080C5E7029870289B
:10A1E00008D0502806D0F96908988847BBF1000FBD
:10A1F00014D04FE0002002900120BBF1000F04902A
:10A2000009D0B969089808F101088847AAF101093D
:10A21000B9F1000F07DCF969089888476FF0010071
:10A220000BB0BDE8F08F2B2804D02D280CD14FF0B7
:10A23000FF300490B969089808F101088847A9F12E
:10A240000109B9F1000FE6DD411CE4D00A21FFF756
:10A250005FFF0028DFDB029908F1010801EB8101B3
:10A2600000EB41000290B969089888470A21FFF77E
:10A270004FFF099AA9F10109B9F1000FC2F8008056
:10A2800001DD0028E7DAF9690898884704990298FF
:10A2900000FB016655EA040004D004F040410900C7
:10A2A00002D006E0039898E0A40044EA9574AD005B
:10A2B000B61E04F00041080002D16D196441761EFB
:10A2C000159810F0240F03D04FF00B095C4803E001
:10A2D0004FF028096FF07D008246564507DAAAEB59
:10A2E00006018944B9F1410F01DD4FF04109012018
:10A2F0000021A9F1010200F079F9024628400B463D
:10A300002140084301D0012100E00021501E0291AC
:10A3100043F1FF3128402140084301D0012000E0F3
:10A3200000200299834651EA0B014FD000210846D4
:10A330004FF00000039900F4400039B100EB8000B9
:10A340004FF4400100EBD07001EA60008015012855
:10A3500002DD4FF0FF3000E013D0401C36D00298F1
:10A3600060B3BBF1000F0CD14A460120002100F080
:10A370003DF928402140084301D0012000E00020A1
:10A38000E0B101204A46002100F030F903464019AF
:10A390000A4661412D1A8C4111D3B9F1400F09DDF4
:10A3A000159810F0240F02D0AAF1340603E0AAF1A8
:10A3B000170600E0761C00254FF0004406E05B1E07
:10A3C00042F1FF3220EA030521EA0204CAF101004A
:10A3D000B04206DA1B490398084301900020009020
:10A3E0000EE0039AC4F3D321E80A0A43164940EA6F
:10A3F00044500A433146CDE90002684604F0C1FEEC
:10A40000159810F0240F0BD01598C00715D1386897
:10A41000DDE90012031D3B600068C0E900120CE09A
:10A4200002A8694604F0A4FE1598C00705D1386853
:10A43000029A011D3960006802604046F0E60000A3
:10A4400002FCFFFF0000F07F0000F03F2DE9FF4F0E
:10A4500092461D4685B04FF00041DDE9124BDDE923
:10A4600014727F1E01EA4B50414940F0FF4940EA17
:10A470000108002122F020004928049102D04E2832
:10A4800028D04CE03BA0012607C88DE80700A96949
:10A490000698641C88477F1E014606D41DF80600F6
:10A4A00018B121F0200181420BD0E9690698884754
:10A4B000032E34D0082E32D06FF0010009B0BDE871
:10A4C000F08F761C032E01D0082EE0D1601CCAF854
:10A4D0000000DCE7A9690698641C88477F1E2AD41F
:10A4E00020F02000412826D1A9690698641C8847DD
:10A4F0007F1E20D420F020004E281CD1A969069888
:10A50000641C88477F1E48F4002849F48009CAF873
:10A51000004001D4282806D0E969069888475FEAF8
:10A52000CB7012D022E0A9690698641C88477F1E70
:10A5300001D4002803DAE96906988847BCE729288E
:10A54000F1D1641CCAF80040E9E71BF0240F07D0E2
:10A5500028680499031D2B600068C0E9001805E015
:10A560002868021D2A600068C0F800902046A5E710
:10A570000000F07F494E46494E4954590000000002
:10A5800010B50446AFF300802046BDE81040FDF74B
:10A5900084BE002801D004F005BE704710B5012824
:10A5A00005D0002103A000F034F8012010BD09A15E
:10A5B000F8E7000053494752544D454D3A204F7536
:10A5C00074206F662068656170206D656D6F7279AB
:10A5D000000000003A2048656170206D656D6F7263
:10A5E0007920636F7272757074656400B2F1200334
:10A5F0000AD5C2F1200301FA02F120FA03F300FAAE
:10A6000002F041EA0301704700FA03F14FF0000045
:10A61000704770B505460C460A2000E06D1C04F03A
:10A62000C3FD35B128780028F8D102E0641C04F09D
:10A63000BBFD14B120780028F8D1BDE870400A2095
:10A6400004F0B2BD5FEA400C08BF91F0000F4FEA82
:10A650008C234FEAC12243EA51514FEA1C5018BFE4
:10A6600000F5F0404FEA300018BF41F000415FEACA
:10A670006C5C00F02980BCF1FF3F08BF40F08040D7
:10A680007047130C06BF12044FF0100C4FF0000C73
:10A69000130E04BF12020CF1080C130F04BF1201B9
:10A6A0000CF1040C930F04BF92000CF1020CD30FB9
:10A6B00004BF52000CF1010C11464FF00002A0F152
:10A6C0001F00A0EB0C00704711F0004F08BF70474F
:10A6D00031F000413FF4D5AF0B0C06BF09044FF039
:10A6E000100C4FF0000C0B0E04BF09020CF1080C0B
:10A6F0000B0F04BF09010CF1040C8B0F04BF890080
:10A700000CF1020CCB0F04BF49000CF1010CCCF191
:10A710002003A0EB0C0022FA03F302FA0CF241EA48
:10A72000030100F10100704720F07F4C80EA030034
:10A7300023F07F47ACEB070303F57C5300F00040A8
:10A7400003F1FF032DE980494FEA154B09B44FEAA5
:10A75000144325EA0B4E24EA03480FF2042606EBC5
:10A76000132749083E785FEA320203FB0667C7F504
:10A77000000707FB06F64FEA54374FEAD64606F1C4
:10A78000020607FB066CCCF1005C4FEA1C472CEA82
:10A79000074C07FB06F40CFB06F504EB15464FEAE5
:10A7A000961634BF00204FF000404FEAD13706FB29
:10A7B00007FC4FEA1C4C0CFB0BF7D21B03FB0CF7FE
:10A7C00061EB07010CFB0EF7B0EB074072EB174291
:10A7D0000CFB08F734BFA2EB0742B2EB074261EB78
:10A7E00017414FEA0C444FEA910706FB07FC4FEA7A
:10A7F0001C4C0CFB0BF7B0EBC74072EB573203FB62
:10A800000CF734BFA2EBC742B2EBC74261EB573142
:10A810000CFB0EF7B0EBC70072EB57720CFB08F79E
:10A8200034BFA2EBC702B2EBC70261EB5771039FC3
:10A830004FEA816141EA921104EBCC044FEAD1372F
:10A840004FEA826206FB07FC42EA90124FEA806000
:10A850004FEA1C4C0CFB0BF7D21B03FB0CF761EB14
:10A8600007010CFB0EF7B0EB074072EB17420CFB35
:10A8700008F734BFA2EB0742B2EB074261EB174186
:10A880004FEA8C554FEA910704EB9C2406FB07FC2A
:10A890004FEA1C4C0CFB0BF7B0EBC74072EB573286
:10A8A00003FB0CF734BFA2EBC742B2EBC74261EB2C
:10A8B00057310CFB0EF7B0EBC70072EB57720CFB75
:10A8C00008F734BFA2EBC702B2EBC70261EB5771C6
:10A8D00015EB4C254FEA816141EA92114FEA826201
:10A8E0004FEAD13742EA901206FB07FC44F100041C
:10A8F0004FEA80604FEA1C4C0CFB0BF7D21B03FBAA
:10A900000CF761EB07010CFB0EF7B0EB074072EBA5
:10A9100017420CFB08F734BFA2EB0742B2EB074229
:10A9200061EB174115EB1C154FEA813141EA924169
:10A930004FEA823242EA90424FEA80304FEA0C7688
:10A9400044F1000448EA03434EEA0B484FF0000E7E
:10A95000B2EB080C71EB030724BF624639464EEB9D
:10A960000E0E4FF0000B0018524149414BEB0B0B00
:10A97000B2EB080C71EB03077BF1000B24BF6246BE
:10A9800039464EEB0E0E4FF0000B00185241494174
:10A990004BEB0B0BB2EB080C71EB03077BF1000BDD
:10A9A00024BF624639464EEB0E0E51EA020718BF2D
:10A9B00046F0010616EB0E7655F1000254F1000147
:10A9C00003D5BDE88901BDE80088BDE88901BDE87F
:10A9D0000048B619524141EB0101A3F10103704750
:10A9E00080807F7E7D7C7B7A7978777676757473CC
:10A9F000727171706F6E6E6D6C6C6B6A6A6968688B
:10AA0000676666656464636362616160605F5F5E20
:10AA10005E5D5D5C5C5B5B5A5A5959585857575696
:10AA200056555555545453535252525151505050FB
:10AA30004F4F4F4E4E4D4D4D4C4C4C4B4B4B4A4A4D
:10AA40004A49494948484847474747464646454591
:10AA500045444444444343434342424242414141CA
:10AA600046EA0646A3F570534FEA164646EA4256B2
:10AA70004FEAD22242EA415210B54FEAD121A3F166
:10AA8000010300F02FF820F0004000F1020C00F06C
:10AA9000004701EB00501146BCF5006F40EA07008B
:10AAA00000D210BDBAF1000F0AD01CB503B44FF0AC
:10AAB00004004FF004014FF000000FBCBDE810404F
:10AAC0004FF00001BBF1010FB9BF04484FF0FF3157
:10AAD0000348002140EA070010BD00BFFFFFEF7FE1
:10AAE0000000F07F002B9C4630D477002BD01CB5A3
:10AAF0004FEA370703B44FF010004FF01001BAF1DE
:10AB0000000F06D0BCF1000FDCBF40F0080040F0A1
:10AB100008014FF000000FBCBDE810400BF1010B25
:10AB2000BBF1010F08BF5FEA170722BF12F1010254
:10AB300011F101014FF0004143F1000300F000402A
:10AB400043EA00007047F9D35708D0E746EA0646C3
:10AB500013F1400F4FEA16461FDD13F1200FDFBF40
:10AB600016430A46002120335B42BED0C3F12007C2
:10AB700046EA064602FA07F74FEA164646EA07068D
:10AB8000C3F1200722FA03F201FA07F721FA03F1D1
:10AB90004FF0000342EA0702A7E746EA020646EA48
:10ABA00006464FEA164646EA0106BCBF46EA064696
:10ABB000360C4FF000034FF000024FF0000194E715
:10ABC0002DE9804C9A46934670B491E8380007C846
:10ABD00031EA400C48BF34EA430C03D5FFF7A4FD2B
:10ABE000FFF780FFF0BCBDE8008C2DE9804C9A4651
:10ABF000934670B491E8380007C831EA400C48BF6A
:10AC000034EA430C03D5FFF78FFDFFF729FFF0BCB3
:10AC1000BDE8008C2DE9804C9A46934670B491E8CB
:10AC2000380007C810F0804F08BF13F0804F03D1E1
:10AC300000F01AF8FFF756FFF0BCBDE8008C2DE9D4
:10AC4000804C9A46934670B491E8380007C810F0DB
:10AC5000804F08BF13F0804F03D100F005F8FFF7D5
:10AC6000FFFEF0BCBDE8008C20F07F4780EA0300C7
:10AC700023F07F4C07EB0C03A3F57C5300F000405E
:10AC8000A3F1FE0392F0000F00F0B38095F0000FE7
:10AC900000F077802DE901494FEA11404FEA144650
:10ACA00021EA004800FB06FC24EA064708FB06F6FA
:10ACB00007FB08F800FB07F718EB06484CEB164CAF
:10ACC0004FEA124B18EB07484FEA15464CEB17407A
:10ACD00022EA0B4E0BFB06FC25EA06470EFB06F6A6
:10ACE00007FB0EFE0BFB07F71EEB064E4CEB164C5C
:10ACF0004FF000061EEB074E4CEB174B18EB0B0802
:10AD000040F1000018EB0E0B58EB000840F100007A
:10AD10008F1A4FF000013CBFC943661B14BFB5EB4F
:10AD2000040C00213CBFC943F61B4FEA17444EEA0E
:10AD30008E0E27EA04454FEA1C4704FB07622CEA03
:10AD4000074C05FB07F70CFB05F604FB0CFC16EBA8
:10AD5000074642EB174216EB0C4642EB1C421BEB3C
:10AD6000060658EB0202414146EA9E0601D5BDE8BF
:10AD70000189B619524141EB0101A3F10103BDE87C
:10AD800001894FEA14454FEA114724EA054621EAB2
:10AD9000074C05FB07F406FB07F70CFB06F105FB68
:10ADA0000CFC11EB074144EB17444FEA124711EB3F
:10ADB0000C4144EB1C4422EA074C05FB07F206FB5E
:10ADC00007F70CFB06F605FB0CFC16EB074642EBFF
:10ADD000174216EB0C4642EB1C456A1854F1000171
:10ADE00048BF7047B619524141EB0101A3F101037D
:10ADF000704795F0000F37D04FEA11424FEA1447E1
:10AE000021EA024624EA074C02FB07F106FB07F79A
:10AE10000CFB06F402FB0CFC14EB074441EB17415E
:10AE20004FEA154714EB0C4441EB1C4125EA074C53
:10AE300002FB07F506FB07F70CFB06F602FB0CFC12
:10AE400016EB074645EB174516EB0C4645EB1C4247
:10AE5000121951F1000148BF7047B619524141EB38
:10AE60000101A3F1010370474FEA14454FEA11476E
:10AE700024EA054621EA074C05FB07F106FB07F724
:10AE80000CFB06F24FF0000605FB0CFC12EB074230
:10AE900041EB174112EB0C4251EB1C4148BF70478C
:10AEA000921841EB0101A3F101037047014601F043
:10AEB0000F000A0902EB820200EB4200C0B27047A9
:10AEC00070B500254FF4803404E0802001F034F8A0
:10AED00000B103E0201EA4F10104F6D100BF0CB9BB
:10AEE000032070BD40F2FF5000F0FCFF2846F8E759
:10AEF00070B5044605E01648056805F0450000B148
:10AF000000E0F8E700BF042001F016F820B10420AB
:10AF100000F0E8FF032070BD012001F00DF820B122
:10AF2000012000F0DFFF0120F5E709482438006820
:10AF3000A04201D01020EEE740F2FF5000F0D2FF17
:10AF400003482038006808210840C0B2E3E7000049
:10AF5000342C014070B500264FF4803505E01148CF
:10AF6000046804F0450000B103E0281EA5F10105C6
:10AF7000F5D100BF15B104F0040028B10326042068
:10AF800000F0B0FF304670BD012000F0D5FF18B1D1
:10AF90000126012000F0A6FF40F2FF5000F0A2FFC2
:10AFA0003046F0E7342C014010B505E00B4804684A
:10AFB00004F0450000B100E0F8E700BF042000F015
:10AFC000BBFF20B1042000F08DFF032010BD40F234
:10AFD000FF5000F087FF0020F8E70000342C01400C
:10AFE0002DE9F04105460E464FF0000805E02048E7
:10AFF000076807F0450000B100E0F8E700BF042053
:10B0000000F09AFF28B1042000F06CFF0320BDE897
:10B01000F081012000F090FF20B1012000F062FFDC
:10B020000120F4E7124824380068A84201D010201B
:10B03000EDE740F2FF5000F055FF0D48203804685E
:10B0400004F4604018B9200C30804046DFE704F477
:10B05000005008B11320DAE704F4804008B1102052
:10B06000D5E704F4004008B10F20D0E74046CEE712
:10B07000342C014070B500264FF4803505E00F48B0
:10B08000046804F0450000B103E0281EA5F10105A5
:10B09000F5D100BF15B104F0040028B10326042047
:10B0A00000F020FF304670BD04F0400018B10026CB
:10B0B000402000F017FF3046F5E70000342C014037
:10B0C00001460A2091FBF0F200FB12100A2291FBCC
:10B0D000F2F240EA0210C0B2704721B1026842F0B9
:10B0E0000102026003E0026822F001020260704780
:10B0F000016821F00101016000210160416081606F
:10B10000C1600161212141614A49884204D13D2148
:10B11000484A103A91608CE046491831884205D17E
:10B120004FF47461434A103A916082E041493031F2
:10B13000884205D14FF474113E4A103A916078E08C
:10B140003C494831884205D14FF07461394A103A80
:10B1500091606EE037496031884204D13649354A02
:10B16000103AD16065E033497831884204D13349DF
:10B17000304A103AD1605CE02E499031884204D1C7
:10B180002F492C4A103AD16053E02A49A83188420D
:10B1900005D14FF03D51274A103AD16049E0294985
:10B1A000884204D13D21274A083A116041E02549EF
:10B1B0001831884205D14FF47461224A083A11606F
:10B1C00037E020493031884205D14FF474111D4ACF
:10B1D000083A11602DE01B494831884205D14FF0F3
:10B1E0007461184A083A116023E0164960318842B8
:10B1F00004D11149134A121F11601AE01149783124
:10B20000884204D10D490F4A121F116011E00D4907
:10B210009031884204D10A490A4A121F116008E09D
:10B220000849A831884204D14FF03D51054A121F08
:10B2300011607047106002403D000020400F002068
:10B2400000003D201064024021B1026842F020025B
:10B25000026003E0026822F02002026070470146AB
:10B2600000200A6802F001020AB1012000E000207B
:10B270007047000010B500220268134B1A40CC68DA
:10B280000B6823434C6923438C692343CC692343D4
:10B290000C6A23434C6A23438C6A23434C6B23433D
:10B2A0008C6B23431A430260426922F00702D1E902
:10B2B0000B3423431A4342610B6943604B6883603C
:10B2C0008B68C36010BD00003F801CF010B50E48B5
:10B2D000006840F010000C49086000BF0A48006890
:10B2E00000F010000028F9D10848006840B108A01B
:10B2F000FDF742F90120094908700949087002E088
:10B3000008A0FDF739F910BD143C0140000242428B
:10B31000696F3220BFAACABC0D0A0000C20000201B
:10B32000C0000020696F3220BDE1CAF80D0A00009C
:10B3300010B51048006800F40070C8B14FF40070F8
:10B340000C49086000BF0B48006800F4007000283A
:10B35000F9D10948006840B108A0FDF70DF90120B6
:10B36000094908700949087002E009A0FDF704F9CD
:10B3700010BD0000143C014024824042696F31201E
:10B38000BFAACABC0D0A0000C1000020C0000020F6
:10B39000696F3120BDE1CAF80D0A00002DE9FC41BA
:10B3A00007460D460026002400200090019008204A
:10B3B0005B49086010204860402088600020C86019
:10B3C0004FF480600861084600F002FE1020FFF78D
:10B3D0008FFD044614B12046BDE8FC815148008829
:10B3E00000044F49086037204860402088600020F2
:10B3F000C8604FF480600861084600F0E9FD37201E
:10B40000FFF776FD04460CB12046E5E74FF0FF302C
:10B410004549086008204860302088600220C860E4
:10B420000020086101204861084600F06BFD002003
:10B430003B49086033204860402088600020C86095
:10B440004FF480600861084600F0C2FD3320FFF72A
:10B450004FFD04460CB12046BEE70CE04FF400104F
:10B4600000F06AFD38B1314800684DF82600761CBE
:10B47000022E00D307E02D484C38006840F22A61C4
:10B4800008400028EAD000BF082000F055FD20B198
:10B49000082000F027FD04209EE7022000F04CFD6C
:10B4A00020B1022000F01EFD022095E7202000F0D0
:10B4B00043FD20B1202000F015FD06208CE74FF45D
:10B4C000007000F039FD28B14FF4007000F00AFD63
:10B4D000072081E740F2FF5000F004FD00980006CD
:10B4E000009901F47F4140EA0120009901F47F01B5
:10B4F00040EA1120009940EA116068600198000656
:10B50000019901F47F4140EA0120019901F47F0192
:10B5100040EA1120019940EA1160286020465BE76B
:10B52000400800208C00002054080020802C01409E
:10B53000F0B50A4600210023002400BF3DE00125AC
:10B5400005FA01F3156805EA03049C4234D1056845
:10B550004F000326BE40B543056015794E00B54047
:10B560000668354305601579012D02D01579022D45
:10B5700016D185684F000326BE40B54385605579D6
:10B580004E00B540866835438560456801268E408B
:10B59000B5434560456896798E40B6B235434560FF
:10B5A000C5684F000326BE40B543C560D5794E003F
:10B5B000B540C6683543C560491C1029BFD3F0BDEE
:10B5C000F0B5002300244D07ED0E02FA05F3CE106E
:10B5D00000F1200555F826504E07F70E0F26BE4005
:10B5E000B543CF1000F1200646F82750CE1000F1E9
:10B5F000200555F8265045EA0304CE1000F1200539
:10B6000045F82640F0BD08B54FF480320092009A0C
:10B610000A430092009AC261C161009AC261C26984
:10B620000092C269009208BD0246002013690B40D7
:10B630000BB1012000E0002070474FF6FF71016060
:10B640000021017141718171C171704770B502466D
:10B650000C46FF25FF2309E012F8010B80EA0301E5
:10B660000648405C80EA05030548455C201EA4F1BD
:10B670000106B4B2F0D143EA052070BDA8CD01089F
:10B68000A8CE010810B50346CA2018490860532007
:10B69000086016481838006820F02000134918394F
:10B6A000086000BF11481838006800F0200000282A
:10B6B000F8D0FF200D4908600C4820380468C4F316
:10B6C0000740FFF7F3FB00F2C6709880C4F3042034
:10B6D000FFF7ECFB987104F03F00FFF7E7FBD87130
:10B6E000C4F30030FFF7E2FB187210BD24280040BD
:10B6F00010B50346CA201549086053200860134856
:10B700001838006820F0200010491839086000BF80
:10B710000E481838006800F020000028F8D0FF20FC
:10B720000A490860094824380468C4F30540FFF753
:10B73000BDFB1870C4F30620FFF7B8FB587004F087
:10B740007F00FFF7B3FB987010BD00002428004075
:10B7500010B505F0A3FE05F041FE10BD06480068D7
:10B7600040F080000449086000BF0348006800F012
:10B7700040000028F9D070470C2800401CB5044652
:10B7800000200190009022480088000421490860B0
:10B790000D204860402088600020C8604FF4806021
:10B7A0000861084600F014FC1B480068009002E0A5
:10B7B000194800680090009800F045000028F7D074
:10B7C000012000F0B9FB20B1012000F08BFB01202B
:10B7D0001CBD042000F0B0FB20B1042000F082FB6F
:10B7E0000320F5E70C48243800680D2801D010200C
:10B7F000EEE740F2FF5000F075FB07482038006884
:10B8000001900198C0F3432020700020E0E7000081
:10B810008C00002040080020342C01401CB5012180
:10B82000084600F0A9F96846FFF707FF7820009066
:10B8300001208DF8040000208DF8060069460C48B0
:10B84000FFF776FE0A48406920F040000849486149
:10B850000846406920F0200048610846406920F011
:10B86000080048610846406920F0100048611CBD8E
:10B87000000002402DE9F0472DED028B84B0054613
:10B880000E464FF0000A002704F0A6FC8146B84699
:10B890006C6983E004B982E004F0F4FC80466068DF
:10B8A00028B14AA14046626804F07CFC04E049A249
:10B8B00046A1404604F076FCA06828B146A1404667
:10B8C000A26804F06FFC04E042A243A1404604F0E9
:10B8D00069FC94ED030A10EE101A084611F004F901
:10B8E00041EC180BB0EE480AF0EE680A3DA1404664
:10B8F00004F032FC207C10F0B1FD41EC180BB0EEEE
:10B90000480AF0EE680A39A1404604F025FC9FED94
:10B910003A0B3BA1404604F01FFC207810F09EFD3E
:10B9200041EC180BB0EE480AF0EE680A36A140462A
:10B9300004F012FC686800BB1420FCF73AFD686054
:10B9400014216868FDF7F5F83148FFF7D1FE30485B
:10B95000FFF798FE2E4880782D4949782C4A1278B6
:10B960002B4BDB79CDE90032CDE9021028498B79E8
:10B970008A8828A16868FCF70BFE2CA140466A68FB
:10B9800004F010FC0020F07432462BA1404604F075
:10B9900009FC4146484604F0BEFB64697AE700BFF3
:10B9A000484604F049FD07465FB925A0FCF7E4FDD1
:10B9B000484604F08DFC002004B0BDEC028BBDE8CD
:10B9C000F087484604F084FC3846F5E754444E615D
:10B9D0006D65000000000000544446616E576569C3
:10B9E00000000000544456616C75650054444A6977
:10B9F0006547756F0000000000000000000059401E
:10BA0000544448616E5375005444587548616F0042
:10BA10001004002025642D25642D25642025303256
:10BA2000643A253032643A253032640054444A691D
:10BA30004C7554696D650000544453616F4D61004D
:10BA40004661696C656420746F207072696E742041
:10BA50007265736F6C7574696F6E732E0A000000E7
:10BA600000F01F02012191404209920002F1E02200
:10BA7000C2F800117047F0B503460C4603F0070109
:10BA8000C1F10700042801D9042001E0C1F1070039
:10BA90000646081D072801D2002000E0C81E054602
:10BAA0000120B040401E2040A8400127AF407F1E2B
:10BAB00017403843F0BD000070B5002100230F226D
:10BAC000C4781CB3174C246804F4E064C4F5E06443
:10BAD000C4F30721C1F10404E3B20A4144789C4055
:10BAE000E1B28478144021430C07210E0E4C0578F6
:10BAF0006155047804F01F050124AC4005786D11F0
:10BB0000AD0005F1E025C5F8004109E0047804F036
:10BB10001F050124AC40054D0678761145F82640F6
:10BB200070BD00000CED00E000E400E080E100E00A
:10BB300010B5002807DA0A07140E054A00F00F03B3
:10BB40001B1FD45403E00A07130E024A135410BDFE
:10BB500018ED00E000E400E00648006820F08000F6
:10BB60000449086000BF0348006800F04000002856
:10BB7000F9D170470C28004029B1064A12680243E7
:10BB8000044B1A6004E0034A12688243014B1A60B6
:10BB9000704700003038024029B1064A126802435B
:10BBA000044B1A6004E0034A12688243014B1A6096
:10BBB000704700004038024029B1064A126802432B
:10BBC000044B1A6004E0034A12688243014B1A6076
:10BBD000704700004438024029B1064A1268024307
:10BBE000044B1A6004E0034A12688243014B1A6056
:10BBF0007047000024380240F0B5002100220024E4
:10BC0000022500260223324F3F6807F00C0121B1C4
:10BC1000042905D0082937D105E02E4F076036E00A
:10BC20002D4F076033E02A4F3F1F3F68C7F3805610
:10BC3000274F3F1F3F6807F03F036EB1264FB7FB0A
:10BC4000F3F7DFF88CC0ACF1040CDCF800C0CCF3E7
:10BC5000881C07FB0CF40CE01E4FB7FBF3F7DFF872
:10BC600070C0ACF1040CDCF800C0CCF3881C07FBFE
:10BC70000CF4174F3F1F3F68C7F301477F1C7D003F
:10BC8000B4FBF5F7076002E0124F076000BF00BF8A
:10BC90000F4F3F6807F0F0010909104F7A5C076801
:10BCA000D74047600A4F3F6807F4E051890A0B4FBD
:10BCB0007A5C4768D7408760054F3F6807F460416A
:10BCC000490B064F7A5C4768D740C760F0BD00005B
:10BCD000083802400024F40000127A00C30000205B
:10BCE0000E48006840F400300C49086000BF0B4863
:10BCF000006800F400300028F9D1CA200849086023
:10BD00005320086006481838006820F48070044901
:10BD100018390860FF20024908607047143C014050
:10BD20002428004000B51248006840F48000104903
:10BD3000086000BF0E48006800F480000028F9D1B8
:10BD4000CA200C490860532008600A481838006867
:10BD500020F48060074918390860FF200549086011
:10BD60000548FFF7C5FC0448FFF78CFC00BD000048
:10BD7000143C0140242800401004002000B52B484A
:10BD8000006840F08050294908602948006840F464
:10BD900080702749086025483030006840F0010075
:10BDA00022493031086000BF20483030006800F080
:10BDB00002000028F8D01D483030006820F44070A0
:10BDC0001A49303108600846006840F48070086005
:10BDD0000846006840F400400860CA201549086021
:10BDE00053200860FFF7BAFC12481C38006820F0A6
:10BDF000400010491C3908600846006820F0200007
:10BE0000086000200B49143908600846006840F0BB
:10BE1000FF0008600846006840F4FE000860FFF775
:10BE20009BFEFF200349086000BD0000403802402F
:10BE300000700040242800407CB505460024002006
:10BE40000090019000260DB1022600E00026224855
:10BE5000006800F0007008B10E207CBD1F49098801
:10BE600088B26946FFF79AFA04460CB12046F4E717
:10BE7000019800F4802060B3184800880004184935
:10BE8000086037204860402088600020C8604FF478
:10BE900080600861084600F09BF83720FFF728F81B
:10BEA00004460CB12046D8E70D48066006200C4930
:10BEB0004860402088600020C8604FF480600861BE
:10BEC000084600F085F80620FFF712F804462046E1
:10BED000C3E72520C1E70000142C01408C0000209E
:10BEE000400800200149086070470000382C0140DC
:10BEF0000146034A106820F0FF00084310607047B5
:10BF0000042C014000210B4B02681A601B1D426883
:10BF10001A601A1D116821F0F701D0E902231A43B3
:10BF200003691A4343691A431143024A08321160F4
:10BF300070470000242C014001460020034A12688B
:10BF40000A400AB1012000E000207047342C014073
:10BF50000248006800F0030070470000002C014018
:10BF600010B500F06FFC10BD00210A4A116847F6B9
:10BF7000FF629143027D83681A4343681A43C36892
:10BF80001A4303681A4303691A431143014A1160B3
:10BF900070470000042C014000200B490860091D77
:10BFA0000860091D0860091D086007492431086000
:10BFB000091D0860091D08600448034938310860FC
:10BFC0000020091D08607047002C0140FF07C000D9
:10BFD0000021094B02681A601A1D11686FF30A01EB
:10BFE000D0E901231A43C3681A4303691A43114372
:10BFF000014A121D11607047082C01400149086078
:10C0000070470000002C014070B590B004460E4609
:10C01000154600BF1A48FFF722F90028FAD1184840
:10C02000FFF766F84FF00060019016480290039405
:10C0300004950020059006904FF4806007908000E2
:10C0400008908000099000200A904FF440300B9037
:10C0500004200C9003200D904FF400000E908010EF
:10C060000F9001A90648FFF705F920210448FFF7C2
:10C07000EBF801210248FFF730F810B070BD000066
:10C0800058640240802C014070B5044600251648D3
:10C090000078032802D12725284670BD1248007871
:10C0A00038B111480078012803D00F4800780228E1
:10C0B00017D1B4F5805F02D127252846EDE7E0B21D
:10C0C000FFF7BAFE054665B90848006820F4C0507D
:10C0D0000649086008460068204308600846006872
:10C0E00008602846D9E7000088000020042C0140A1
:10C0F000F0B5014600200022BE4B1B7881F8563077
:10C10000BD4B1B88A1F85430BC4B1B681A0E930919
:10C110000B70C2F383034B7002F003038B70B74BB9
:10C120001B68C3F30742CA70B44B1B88C3F30722D2
:10C130000A71B24B1A784A715B681A0E1301CB80F0
:10C14000AE4B5B68C3F30742CB8843EA1213CB8044
:10C1500002F00F030B72A94B9B88C3F30722D3098C
:10C160004B72C2F380138B72C2F34013CB72C2F3D3
:10C1700000130B7300234B739E4B1B783BB19D4BFD
:10C180001B78012B03D09B4B1B78032B4FD19307BC
:10C190001B0D0B61994B1A790B6943EA82030B6102
:10C1A000964B9B681A0E0B6943EA92130B61C2F31C
:10C1B000C2030B7502F007034B75904B9B68C3F3EA
:10C1C000074253098B75C2F38203CB7593075B0F4C
:10C1D0000B768A4B1B89C3F307220B7E43EAD213EB
:10C1E0000B760B695B1C0024C1E912340B7E9B1C8F
:10C1F000012404FA03F3DC17D1E91256A5FB037CF2
:10C2000006FB03C305FB0433C1E912730C7A012357
:10C21000A3400B650024D1E912650B6DA6FB037CDE
:10C2200005FB03C306FB0433C1E912732EE0714B17
:10C230001B78022B2AD1714B1A7993069B0A0B614A
:10C240006E4B9B681A0E0B6943EA02230B616B4B22
:10C250009B68C3F307420B6913430B61674B1B8950
:10C26000C3F307220B695B1C4FF40074A3FB044665
:10C270004FF480630025A4FB037C06FB03C304FB8F
:10C280000533C1E912734FF400730B65C2F38013D9
:10C2900001F8193F93065B0E4B70584B1A7A4B7896
:10C2A00043EAD2134B7002F07F038B70534BDB6871
:10C2B0001A0ED309CB70C2F341130B71C2F3820380
:10C2C0004B7193071B0F8B714C4BDB68C3F3074219
:10C2D0008B7943EA92138B71C2F34013CB71002325
:10C2E0000B7202F001034B72444B9B89C3F307228C
:10C2F000D3098B72C2F38013CB72C2F340130B735A
:10C30000C2F300134B73C2F381038B7302F0030378
:10C31000CB733A4B1A7B53080B7401234B74384B85
:10C320001B681A0ECA741939354B1B68C3F30742D0
:10C330001402CC85324B1B88C3F30722CB8D1343E9
:10C34000CB852F4B1A7814060C635B681A0E0B6BA7
:10C3500043EA02440C632A4B5B68C3F307420B6B4E
:10C3600043EA02240C63264B9B88C3F307220B6B22
:10C3700013430B63224B1A7934235A54204B9B6886
:10C380001A0E35235A541E4B9B68C3F307421406FA
:10C390008C631B4B1B89C3F307228B6B43EA02445C
:10C3A0008C63174B1A7A8B6B43EA02248C63144B11
:10C3B000DB681A0E8B6B13438B63114BDB68C3F383
:10C3C00007423C235B5C43EA12143C235C54130792
:10C3D0001C0DCC870A4B9B89C3F30722CB8F1343D9
:10C3E000CB87074B1A7B540840235C54012441231C
:10C3F0005C54F0BD880000208C0000206C080020F8
:10C400007C0800203EB5002401213748FFF7B4FB2B
:10C410000121C802FFF7D0FB0121C802FFF7DCFBB6
:10C420004FF48850019002208DF808008DF8090023
:10C4300000208DF80A0001208DF80B0001A92B487F
:10C44000FFF776F80420019001A92948FFF770F85A
:10C450000C2208212548FFF7B3F80C221146234887
:10C46000FFF7AEF80C2202212148FFF7A9F80021BE
:10C470004FF40060FFF7B0FBFFF78EFD31208DF821
:10C48000000000208DF801008DF8020001208DF8D9
:10C4900003006846FFF710FB00F0E2F8044614B909
:10C4A00000F02CF804461CB91248FFF721FE0446A0
:10C4B00034B91049B1F85410080400F06BFD04467B
:10C4C0001CB90020FFF7E0FD04461CB10A480078C3
:10C4D000032806D10020FFF70BFD002000F072FDBD
:10C4E000044620463EBD00000C004000000802400B
:10C4F000000C0240900800208800002038B500247D
:10C5000001200090FFF724FD10B92524204638BDF6
:10C510004D480078042824D000204C4908600220AF
:10C520004860C02088600020C8604FF480600861C7
:10C530000846FFF74DFDFEF70DFD04460CB1204601
:10C54000E5E743480068434908604148001D00682A
:10C5500048603F480830006888603D480C300068FB
:10C56000C8603948007858B137480078012807D0AA
:10C5700035480078062803D033480078022816D1C1
:10C580000020324908600320486040208860002075
:10C59000C8604FF4806008610846FFF719FD6946DE
:10C5A0000320FEF71DFD04460CB12046AFE72648E8
:10C5B0000078032816D1BDF8000000042349086064
:10C5C00003204860402088600020C8604FF48060ED
:10C5D00008610846FFF7FCFCFEF7BCFC04460CB102
:10C5E000204694E71848007804282AD0BDF80000B7
:10C5F00019490860BDF800000004144908600920CA
:10C600004860C02088600020C8604FF480600861E6
:10C610000846FFF7DDFCFEF79DFC04460CB1204602
:10C6200075E70B4800680D4908600948001D00685F
:10C630004860074808300068886005480C3000688A
:10C64000C860002063E70000880000204008002048
:10C65000142C01407C0800208C0000206C08002075
:10C660002DE9F0470027002400260025A046A1461A
:10C6700076206E4908750020086048608860C860B0
:10C6800008610846FFF770FC0320FFF7B7FC684815
:10C69000006840F480706649086000BF12E0002026
:10C6A0006449086048608860C8604FF48060086131
:10C6B0000846FFF78DFCFEF703FC044604B903E0CF
:10C6C000781CC7B24A2FEADB00BF14B12046BDE890
:10C6D000F0874FF4D5705749086008204860402023
:10C6E00088600020C8604FF4806008610846FFF74A
:10C6F0006FFCFEF7BFFC044624B901204E490870C8
:10C700004FF0804900204B490860372048604020A6
:10C7100088600020C8604FF4806008610846FFF719
:10C7200057FC3720FEF7E4FB0446002C4CD135E0E3
:10C730000020404908603720486040208860002081
:10C74000C8604FF4806008610846FFF741FC37205D
:10C75000FEF7CEFB04460CB12046B8E7374849EA5D
:10C76000000034490860292048604020886000208B
:10C77000C8604FF4806008610846FFF729FCFEF7A7
:10C7800013FC04460CB12046A1E729481030066886
:10C79000012080EAD67080F001086D1CB8F1000F0E
:10C7A00003D14FF6FF708542C2D34FF6FF7085422A
:10C7B00002D31B2420468AE706F08040061E33D0B1
:10C7C00002201D4908702FE01DE01D48194908602E
:10C7D00001204860402088600020C8604FF48060DD
:10C7E00008610846FFF7F4FBFEF7DEFB04460CB1D8
:10C7F00020466CE70E4810300668012080EAD670AB
:10C8000080F001086D1CB8F1000F03D14FF6FF70E6
:10C810008542DAD34FF6FF70854202D31B242046AF
:10C8200055E7032004490870204650E728080020F7
:10C83000042C0140400800208800002000001080E7
:10C840000080FF8010B54FF48070FFF775FB78B360
:10C850004C480078012814D100204B4908600C2076
:10C860004860402088600020C8604FF48060086104
:10C870000846FFF7ADFB0C20FEF73AFB4349087072
:10C8800002E00020414908704148006840F480708F
:10C890003F490860081D00684CF23A3188433C4922
:10C8A000091D086001203B4908703848007810BD18
:10C8B000FFE70220FFF740FB78B10220FFF712FBF1
:10C8C0003348001D00684CF23A3188433049091D55
:10C8D000086002202D490870E9E70820FFF72CFBCB
:10C8E00078B10820FFF7FEFA2948001D00684CF2D5
:10C8F0003A3188432649091D0860042023490870FD
:10C90000D5E72020FFF718FB78B12020FFF7EAFADF
:10C910001F48001D00684CF23A3188431C49091D2C
:10C920000860062019490870C1E71020FFF704FBD2
:10C9300078B11020FFF7D6FA1548001D00684CF2B8
:10C940003A3188431249091D086005200F490870D3
:10C95000ADE74FF40070FFF7EFFA80B14FF40070CD
:10C96000FFF7C0FA0A48001D00684CF23A318843CC
:10C970000749091D086007200449087097E700204F
:10C9800095E7000091000020400800209200002060
:10C99000382C0140930000202DE9F84F81461746BE
:10C9A00098460A9C4FF0000AD3464D464FF0FF369A
:10C9B000B9F1000F02D12620BDE8F88F002086498A
:10C9C000086086480078022805D10402780A40EA07
:10C9D000C8574FEA68280020814988604860401E97
:10C9E0000860012048610020C86008610846FFF720
:10C9F00089FA79481838006800F0007008B10E20F4
:10CA0000DAE7002C21DDB4F5006F1EDC601E20404B
:10CA1000D8B9204603F0A8FE0090724804601020A8
:10CA200070494860402088600020C8604FF48060F2
:10CA300008610846FFF7CCFA1020FEF759FA824643
:10CA4000BAF1000F03D05046B6E72620B4E70098AD
:10CA5000000163498860084644604FF0FF30086079
:10CA6000012048610220C860002008610846FFF7E5
:10CA700049FA5C48076011205A49486040208860A4
:10CA80000020C8604FF4806008610846FFF7A0FAF4
:10CA90001120FEF72DFA8246BAF1000F01D0504660
:10CAA0008AE75148007800285CD1FBF7FDFB18E0CD
:10CAB0004FF40040FFF740FA78B14FF0000B06E06A
:10CAC00045485430006845F82B000BF1010BBBF1D1
:10CAD000080FF5D32035454E03E00EB904206BE76F
:10CAE000761E3D480830006840F22A610840002860
:10CAF000DED00820FFF720FA20B10820FFF7F2F976
:10CB0000042059E70220FFF717FA20B10220FFF7AF
:10CB1000E9F9022050E72020FFF70EFA20B120208B
:10CB2000FFF7E0F9062047E74FF40070FFF704FA3B
:10CB300028B14FF40070FFF7D5F907203CE704E077
:10CB400025485430006828602D1D4FF40010FFF771
:10CB5000F3F90028F4D1FBF7A9FB40F2FF50FFF7EF
:10CB6000C1F936E020480078012832D10020204960
:10CB70000870204908702049087017481030006874
:10CB800040F22A3108431449103108601248006805
:10CB900040F0080010490860002221464846FFF78F
:10CBA00033FA00E0761E1548006800F0006038B9DE
:10CBB0001148007820B90E48007808B9002EF1D14C
:10CBC0000EB90420F8E60A48007810B1084890F839
:10CBD00000A05046F0E600002C2C01408800002008
:10CBE000540800204008002090000020FFFF7F0034
:10CBF0009200002091000020930000200064024079
:10CC00002DE9FE4F83460E469146002002900025F6
:10CC100034462148007818B1680240EAD4556402CD
:10CC20000BF00300F0B14FF0000A18E04FF4007071
:10CC300000904FEA4A20071945EBE0733A4617483F
:10CC4000FFF7AAFE02904FF4007214495846FBF712
:10CC5000F1FE0BF5007B0AF1010000F0FF0ACA4566
:10CC6000E4DB16E0B9F1010F09D14FF40070224660
:10CC70002B4600905846FFF78FFE029009E04FF4D4
:10CC8000007022462B46CDE90009584600F008F80E
:10CC900002900298BDE8FE8F88000020E80800207E
:10CCA0002DE9FF5F17469846DDE90E464FF0000973
:10CCB000CA464FF0FF35AC49009808600020AB49E8
:10CCC0000860AB480078022805D10402780A40EADF
:10CCD000C8574FEA68280020A64988604860401E6F
:10CCE0000860012048610020C86008610846FFF71D
:10CCF00009F99E481838006800F0007018B10E203D
:10CD000004B0BDE8F09F002C21DDB4F5006F1EDCFF
:10CD1000601E2040D8B9204603F026FD8346964881
:10CD20000460102094494860402088600020C8605A
:10CD30004FF4806008610846FFF74AF91020FEF7BB
:10CD4000D7F88146B9F1000F03D04846D8E726202E
:10CD5000D6E7012E71D906FB04F0B0F1007F01D3B4
:10CD60002620CDE74FEA0B108249886006FB04F0CD
:10CD700048604FF0FF300860012048610220C86021
:10CD8000002008610846FFF7BDF87B4807601220C5
:10CD900079494860402088600020C8604FF4806076
:10CDA00008610846FFF714F91220FEF7A1F8814642
:10CDB000B9F1000F01D04846A2E77048007800287A
:10CDC0007ED1FBF771FA1EE04FF40040FFF7B4F894
:10CDD000A8B14FF0000A08E0644854300068624986
:10CDE000096841F82A000AF1010ABAF1080FF3D3E1
:10CDF0005D48006820305C490860614D03E00DB972
:10CE000004207DE76D1E59480830006840F22A3141
:10CE100008400028D8D00820FFF78EF820B108205D
:10CE2000FFF760F804206BE70220FFF785F828B1D0
:10CE30000220FFF757F8022062E792E02020FFF778
:10CE40007BF820B12020FFF74DF8062058E74FF47B
:10CE50000070FFF771F828B14FF40070FFF742F847
:10CE600007204DE70AE04148543000683E49096810
:10CE700008603D480068001D3B4908604FF4001001
:10CE8000FFF75AF80028EED14FF48070FFF754F8FE
:10CE900020B33748007838B135480078012803D0EE
:10CEA00033480078022819D10020334908600C204B
:10CEB0004860402088600020C8604FF4806000E037
:10CEC00013E008610846FFF783F80C20FEF710F81E
:10CED0008146B9F1000F01D0484611E7FBF7E6F9AA
:10CEE00040F2FF50FEF7FEFF3BE0244800780128A7
:10CEF00037D1002023490870012023490870002001
:10CF00002249087019481030006840F22A3108435D
:10CF10001649103108601548006840F008001349B0
:10CF2000086006FB04F100220098FFF76DF800E0AE
:10CF30006D1E1748006800F0006008B9002DF7D199
:10CF40000DB90420DCE600BF1048007818B90D4880
:10CF500000780028F8D00B48007810B1094890F804
:10CF600000904846CCE60000940000202C2C0140A4
:10CF70008800002054080020400800209000002075
:10CF8000FFFF7F009200002091000020930000200E
:10CF90000064024010B504460948046007200849AF
:10CFA0004860402088600020C8604FF480600861BD
:10CFB0000846FFF70DF80720FDF79AFF10BD0000A7
:10CFC0004008002001460020012900D011B9024B81
:10CFD000197000E026207047900000202DE9FF5FC7
:10CFE00086B017469846149D0026002005900490B0
:10CFF000002481460390824602900195DDF818B026
:10D00000DDF818B0BBF1000F03D126200AB0BDE84F
:10D01000F09F0020C9490860C94988604860401EE7
:10D020000860012048610020C86008610846FEF7DA
:10D0300069FFC2481838006800F0007008B10E207F
:10D04000E4E7C0480078022805D10502780A40EAE2
:10D05000C8574FEA6828002D1FDDB5F5006F1CDCAE
:10D06000681E2840C8B9284603F07EFB0590B648E4
:10D0700005601020B4494860402088600020C860E6
:10D080004FF4806008610846FEF7A2FF1020FDF70C
:10D090002FFF06461EB13046B8E72620B6E7AB485C
:10D0A00000880004A84908600D204860402088607E
:10D0B0000020C8604FF4806008610846FEF788FFD2
:10D0C0000D20FDF715FF06460EB130469EE79B4842
:10D0D0001838006803904FF0FF341CE0641E9B4832
:10D0E00000880004984908600D204860402088604E
:10D0F0000020C8604FF4806008610846FEF768FFB2
:10D100000D20FDF7F5FE06460EB130467EE78B4852
:10D11000183800680390039800F4807008B9002C58
:10D12000DCD10CB9292071E78748076018208649AF
:10D130004860402088600020C8604FF4806008612B
:10D140000846FEF745FF1820FDF7D2FE06460EB151
:10D1500030465BE700207E49087005980001784959
:10D160008860084645604FF0FF3008600120486144
:10D170000020C86008610846FEF7C4FE4FF0FF3487
:10D180007448007800287ED1FBF78EF845E04FF414
:10D190008040FEF7D1FED8B30198A0EB090020280B
:10D1A00022D20198A0EB090000F0030020B90198F9
:10D1B000A0EB0900800804E00198A0EB09008008BA
:10D1C000401C02904FF0000A0AE05C495431DBF841
:10D1D000000008600AF1010A0BF1040B09F10409CF
:10D1E00002988245F1D310E04FF0000A06E05BF8A8
:10D1F0002A005249543108600AF1010ABAF1080FB5
:10D20000F5D30BF1200B09F120096FF0404404E045
:10D21000FFE70CB90420F9E6641E484808300068AE
:10D2200040F21A6108400028B1D00820FEF784FEC1
:10D2300020B10820FEF756FE0420E7E60220FEF7A4
:10D240007BFE20B10220FEF74DFE0220DEE610201C
:10D25000FEF772FE20B11020FEF744FE0520D5E651
:10D260004FF40070FEF768FE30B14FF40070FEF727
:10D2700039FE0720CAE606E0FBF718F840F2FF5037
:10D28000FEF730FE41E03348007801283DD1002010
:10D29000314908702E49087030490870274810300D
:10D2A000006840F21A3108432449103108604022D6
:10D2B00029460698FEF7A8FE2048006840F00800BE
:10D2C0001E49086000E0641E2548006800F0006008
:10D2D00008B9002CF7D11CB9FFF794F8042095E6A3
:10D2E0004FF0FF3400E0641E1C48007820B91A4853
:10D2F000007808B9002CF6D10CB9042086E616484F
:10D30000007810B11448007880E640F2FF50FEF734
:10D31000E9FD04A8FEF732FA064603E004A8FEF78A
:10D320002DFA06463EB99DF810000728F6D09DF864
:10D3300010000628F2D0304668E600002C2C014090
:10D340005408002088000020400800208C000020A5
:10D350009100002090000020920000209300002007
:10D36000006402402DE9FE4F0646894692460020A1
:10D37000029000254C462148007818B1680240EA26
:10D38000D455640206F00300F0B14FF0000B18E032
:10D390004FF4007231461A48FBF74CFB4FF4007013
:10D3A00000904FEA4B20071945EBE0733A461448CA
:10D3B000FFF714FE029006F500760BF1010000F075
:10D3C000FF0BD345E4DB16E0BAF1010F09D14FF4AE
:10D3D000007022462B4600903046FFF7FFFD02907A
:10D3E00009E04FF4007022462B46CDE9000A304692
:10D3F00000F008F802900298BDE8FE8F8800002037
:10D40000E80800202DE9FF5F84B0DDE9124700261F
:10D41000002003900290002580468146019007FB82
:10D4200004FBDDF810A0DDF810A0BAF1000F03D165
:10D43000262008B0BDE8F09F0020DC490860DC49E8
:10D4400088604860401E0860012048610020C86074
:10D4500008610846FEF756FDD4481838006800F009
:10D46000007008B10E20E4E7D2480078022808D105
:10D470000402DDE90601400A40EAC1504912CDE943
:10D480000601002C1FDDB4F5006F1CDC601E20407F
:10D49000C8B9204603F068F90390C748046010201B
:10D4A000C5494860402088600020C8604FF4806013
:10D4B00008610846FEF78CFD1020FDF719FD0646B1
:10D4C0001EB13046B5E72620B3E7012F6FD907FB21
:10D4D00004F0B0F1007F01D32620AAE7B548007818
:10D4E00038B1B4480078012803D0B2480078022847
:10D4F0002DD1B24800880004AF4908603720486049
:10D50000402088600020C8604FF4806008610846B1
:10D51000FEF75EFD3720FDF7EBFC06460EB1304608
:10D5200087E7A54807601720A34948604020886026
:10D530000020C8604FF4806008610846FEF748FD8F
:10D540001720FDF7D5FC06460EB1304671E79A4923
:10D550000698086019204860402088600020C86054
:10D560004FF4806008610846FEF732FD1920FDF790
:10D57000BFFC06460EB130465BE7039800018C49BC
:10D58000886007FB04F048604FF0FF30086001201E
:10D5900048610020C86008610846FEF7B3FC88486F
:10D5A0000078002874D1451EFAF77EFE42E0E4E0E0
:10D5B0004FF48040FEF7C0FCB8B3ABEB0800202866
:10D5C0001FD2ABEB080000F0030018B9ABEB08006A
:10D5D000800803E0ABEB08008008401C01904FF08E
:10D5E00000090AE071495431DAF80000086009F1D5
:10D5F00001090AF1040A08F1040801988145F1D3F0
:10D6000010E04FF0000906E05AF82900674954314C
:10D61000086009F10109B9F1080FF5D30AF1200AF0
:10D6200008F120086FF0404504E0FFE70DB9042041
:10D63000FFE66D1E5D480830006840F21A31084070
:10D640000028B5D00820FEF777FC20B10820FEF7AF
:10D6500049FC0420EDE60220FEF76EFC20B102201A
:10D66000FEF740FC0220E4E61020FEF765FC20B146
:10D670001020FEF737FC0520DBE64FF40070FEF7C4
:10D680005BFC30B14FF40070FEF72CFC0720D0E6B5
:10D690002CE04FF48070FEF74FFC00B34548007853
:10D6A00038B144480078012803D042480078022865
:10D6B00015D10020404908600C2048604020886057
:10D6C0000020C8604FF4806008610846FEF780FCC7
:10D6D0000C20FDF70DFC06460EB13046A9E6FAF720
:10D6E000E5FD40F2FF50FEF7FDFB46E034480078D0
:10D6F000012842D1002033490870012032490870C6
:10D7000000203249087029481030006840F21A3170
:10D71000084326491031086007FB04F140220498B1
:10D72000FEF772FC2148006840F008001F490860BD
:10D730004FF0FF3500E06D1E2548006800F00060E6
:10D7400008B9002DF7D11DB9FEF75CFE042070E684
:10D750004FF0FF3500E06D1E1C48007820B91948D5
:10D76000007808B9002DF6D10DB9042061E61548FE
:10D77000007810B1134800785BE640F2FF50FEF7E6
:10D78000B1FB02A8FDF7FAFF064603E002A8FDF789
:10D79000F5FF06463EB99DF808000728F6D09DF82B
:10D7A00008000628F2D0304643E600002C2C014049
:10D7B0005408002088000020400800208C00002031
:10D7C0009000002092000020910000209300002093
:10D7D000006402400CB500200190009034480068BD
:10D7E00040F480303249086000BF3148006800F4DE
:10D7F000003000900198401C0190009818B90198E1
:10D80000B0F5A04FF1D12A48006800F4003010B103
:10D810000120009001E0002000900098012846D1EE
:10D8200023484030006840F0805021494031086072
:10D830002048006840F440401E4908601C480830F9
:10D8400000681B49083108600846006840F4004041
:10D8500008600846006840F4A05008601648091F98
:10D860000860081F006840F08070091F086000BF52
:10D870000F48006800F000700028F9D040F20570F1
:10D880000E4908600A480830006820F00300084983
:10D89000083108600846006840F00200086000BFD8
:10D8A00003480830006800F00C000828F8D10CBDCF
:10D8B000003802400070004008544007003C02401D
:10D8C000F0B503460C461546CA200F4908605320A0
:10D8D0000860FDF743FFA3F2C671C8B2FDF7F0FB85
:10D8E00007042046FDF7ECFB47EA00272846FDF732
:10D8F000E7FB47EA0006044820380660FEF72CF9EB
:10D90000FF2001490860F0BD242800402DE9F041C6
:10D9100006460C461546CA200F4908605320086089
:10D92000FDF71CFF3046FDF7CBFB000440EA8358AF
:10D930002046FDF7C5FB48EA00282846FDF7C0FB56
:10D9400048EA0007044824380760FEF705F9FF207D
:10D9500001490860BDE8F0812428004010B500BFEF
:10D96000502080F31188BFF34F8FBFF36F8F00BF3C
:10D970000DF08EFF18B14FF080500449086000BFD1
:10D98000002080F3118800BF10BD000004ED00E00E
:10D9900010B51548006840F470001349086013483A
:10D9A000006840F001001149086000200F4908316B
:10D9B00008600E4800680E4908400C4908600D4890
:10D9C000091D0860081F006820F48020091F0860F6
:10D9D000002006490C310860FFF7FCFE4FF00060A4
:10D9E00001498039086010BD88ED00E00038024030
:10D9F000FFFFF6FE1030002410B52648008800F026
:10DA0000200060B12348001D00882349498E224A26
:10DA100050541046408E401C1146488639E01D483F
:10DA2000008800F01000002833D01A480088C4B2E3
:10DA30001848001D0088C4B21748408E1649C88691
:10DA400000204886012081F8340014211348FBF798
:10DA500070F81148C08E801E0F49085C0D280CD14B
:10DA60000846C08E401E085C0A2806D10846C08EB3
:10DA7000821E0A48FAF7DEFF05E00748C28E01461B
:10DA80000648FAF7D7FF00200449C87404A0FAF743
:10DA900073FD10BD004C00405C1F0020961F00204D
:10DAA0000D0AC9A8C2EBA3BA25730D0A0000000035
:10DAB00010B53E48008800F02000C0B13B48808887
:10DAC0003B49B1F800143A4A50541046B0F80004EB
:10DAD000401C1146A1F800040846B0F80004B0F557
